:100000000C9421010C9449010C9449010C94490170
:100010000C9449010C9449010C9449010C94490138
:100020000C9449010C9449010C9449010C94490128
:100030000C9449010C9449010C9449010C94490118
:100040000C94EF0A0C9449010C945F0B0C94390B3F
:100050000C9449010C9449010C9449010C944901F8
:100060000C9449010C94490107634236B79BD8A709
:100070001A39685618AEBAAB558C1D3CB7CC5763CD
:10008000BD6DEDFD753EF6177231BF000000803F7B
:1000900008000000BE922449123EABAAAA2ABECD97
:1000A000CCCC4C3E00000080BEABAAAAAA3E000009
:1000B0000000BF000000803F000000000008417801
:1000C000D3BB4387D1133D190E3CC3BD4282AD2B38
:1000D0003E68EC8276BED98FE1A93E4C80EFFFBE30
:1000E00001C4FF7F3F000000000000407A10F35A77
:1000F00000A0724E18090010A5D4E80000E8764868
:10010000170000E40B54020000CA9A3B000000E113
:10011000F505000080969800000040420F000000A6
:10012000A08601000000102700000000E803000086
:1001300000006400000000000A0000000000010050
:10014000000000002C76D888DC674F0823DFC1DF71
:10015000AE59E1B1B796E5E3E453C63AE651997674
:1001600096E8E6C28426EB898C9B62ED407C6FFCAE
:10017000EFBC9C9F40F2BAA56FA5F490055A2AF7F0
:100180005C936B6CF9676DC11BFCE0E40D47FEF5F9
:1001900020E6B500D0ED902E030094357705008061
:1001A000841E080000204E0A000000C80C333333C0
:1001B000330F986E12831141EF8D2114893BE65560
:1001C00016CFFEE6DB18D1844B381BF77C1D901D43
:1001D000A4BBE424203284725E228100C9F124ECA5
:1001E000A1E53D27000000002300260029000000B3
:1001F0000000240027002A0000000000250028003D
:100200002B00040404040404040402020202020297
:1002100003030303030301020408102040800102CA
:100220000408102001020408102000000008000249
:100230000100000304070000000000000000910B13
:10024000500F11241FBECFEFD8E0DEBFCDBF22E09C
:10025000AAE5B1E001C01D92AA34B207E1F711E0AE
:10026000A0E0B1E0EAEAF0E302C005900D92AA3501
:10027000B107D9F711E0C0E2D1E004C02197FE0137
:100280000E942E16CF31D107C9F70E94C30B0C94E0
:1002900048180C940000833081F028F4813099F0E4
:1002A0008230A9F008958730A9F08830C9F08430F1
:1002B000B1F4809180008F7D03C0809180008F77A2
:1002C00080938000089584B58F7784BD089584B5A8
:1002D0008F7DFBCF8091B0008F778093B000089521
:1002E0008091B0008F7DF9CF1F93CF93DF93282F9C
:1002F00030E0F901E65DFD4F8491F901EA5EFD4FC2
:10030000D491F901EE5FFD4FC491CC23A9F0162FD3
:1003100081110E944B01EC2FF0E0EE0FFF1FE8501F
:10032000FE4FA591B4918FB7F894EC91111108C0CC
:10033000D095DE23DC938FBFDF91CF911F9108957D
:10034000DE2BF8CFCF93DF9390E0FC01EA5EFD4F08
:1003500024918E5F9D4FFC0184918823D1F090E021
:10036000880F991FFC01E251FE4FA591B491FC0149
:10037000E850FE4FC591D49161110EC09FB7F8941B
:100380008C91E22FE0958E238C932881E223E883E1
:100390009FBFDF91CF9108958FB7F894EC91E22B36
:1003A000EC938FBFF6CF3FB7F89480919B0190916B
:1003B0009C01A0919D01B0919E0126B5A89B05C00E
:1003C0002F3F19F00196A11DB11D3FBFBA2FA92FD4
:1003D000982F8827BC01CD01620F711D811D911DD1
:1003E00042E0660F771F881F991F4A95D1F708953D
:1003F0000895AF92BF92CF92DF92EF92FF920F9348
:100400001F93CF93DF936C017B018B01040F151FAA
:10041000EB015E01AE18BF08C017D10759F0699112
:10042000D601ED91FC910190F081E02DC601099576
:10043000892B79F7C501DF91CF911F910F91FF9023
:10044000EF90DF90CF90BF90AF900895FC01538D57
:10045000448D252F30E0842F90E0821B930B54179E
:1004600010F0CF96089501970895FC01918D828D2B
:10047000981761F0A28DAE0FBF2FB11D5D968C91C4
:10048000928D9F5F9F73928F90E008958FEF9FEF03
:1004900008952FB7F89480919F019091A001A091A9
:1004A000A101B091A2012FBF8093AB019093AC0149
:1004B000A093AD01B093AE0183EA91E00E943502B2
:1004C00097FF26C02FB7F89480919F019091A001CB
:1004D000A091A101B091A2012FBF4091AB01509119
:1004E000AC016091AD017091AE01841B950BA60B20
:1004F000B70B4091A7015091A8016091A90170919B
:10050000AA0184179507A607B707B0F28FEF9FEFF0
:100510000895FC01918D828D981731F0828DE80F3E
:10052000F11D858D90E008958FEF9FEF0895FC01F8
:10053000918D228D892F90E0805C9F4F821B9109C5
:100540008F739927089583EA91E00E94970221E032
:10055000892B09F420E0822F0895FC01A48DA80FB7
:10056000B92FB11DA35ABF4F2C91848D90E00196F5
:100570008F739927848FA689B7892C93A089B18915
:100580008C91837080648C93938D848D981306C0B6
:100590000288F389E02D80818F7D80830895EF921A
:1005A000FF920F931F93CF93DF93EC0181E0888F2D
:1005B0009B8D8C8D98131AC0E889F989808185FFFD
:1005C00015C09FB7F894EE89FF896083E889F9899F
:1005D00080818370806480839FBF81E090E0DF91A1
:1005E000CF911F910F91FF90EF900895F62E0B8DF4
:1005F00010E00F5F1F4F0F731127E02E8C8D8E11AF
:100600000CC00FB607FCFACFE889F989808185FF15
:10061000F5CFCE010E94AD02F1CFEB8DEC0FFD2F97
:10062000F11DE35AFF4FF0829FB7F8940B8FEA89D0
:10063000FB8980818062CFCFCF93DF93EC01888DDF
:100640008823B9F0AA89BB89E889F9898C9185FD4D
:1006500003C0808186FD0DC00FB607FCF7CF8C91DB
:1006600085FFF2CF808185FFEDCFCE010E94AD02E4
:10067000E9CFDF91CF9108950F931F93CF93DF932D
:10068000EC012A8188819981019749F530E0F901CF
:10069000E65DFD4F8491F901EA5EFD4F0491F90199
:1006A000EE5FFD4F1491112391F181110E944B01D6
:1006B000E12FF0E0EE0FFF1FEC51FE4FA591B4913A
:1006C000EC910E2331E020E009F430E0832F922FEB
:1006D0009D838C83DF91CF911F910F9108952E30D0
:1006E00008F02E502770206420937C0080917A00BF
:1006F000806480937A0080917A0086FDFCCF90918F
:10070000780080917900892798278927E1CF90E0A8
:1007100080E0DECF0F931F93CF93FC01758364833A
:10072000C28180819181019731F48C2FCF911F91EB
:100730000F910C9474018B0161E08C2F0E94A20137
:10074000012B11F460E0F1CFEC2FF0E0E65DFD4FFE
:10075000E491E33029F150F4E130D1F0E23091F747
:1007600084B5806284BD81E088BD16C0E73021F188
:10077000E83059F1E43031F7809180008062809355
:10078000800081E090E090938B0080938A0004C009
:1007900084B5806884BDE7BDCF911F910F91089506
:1007A0008091800080688093800081E090E0909349
:1007B000890080938800F0CF8091B000806880939A
:1007C000B00081E08093B300E7CF8091B0008062F9
:1007D0008093B00081E08093B400DECF0F931F932D
:1007E000CF93DF93EC01862F890121E030E039833C
:1007F00028836A834B83642F0E94A201B801CE0133
:10080000DF91CF911F910F910C948A03AF92BF9209
:10081000CF92DF92EF92FF920F931F93CF93DF93CC
:10082000EC015B016A017901EE8DFF8D888D998D58
:10083000E80FF91F6081062F617070E08C859D853F
:100840000E948A0301FB662760F970E08E859F8510
:100850000E948A0302FB662760F970E08889998903
:100860000E948A0303FB662760F970E08A899B89EE
:100870000E948A038E899F89688D798D0197C9F4BA
:100880006A0D7B1D6E157F05BCF4798F688F888D8E
:10089000998D8C159D0514F4F98EE88EDF91CF911A
:1008A0001F910F91FF90EF90DF90CF90BF90AF908E
:1008B00008956A197B09E6CFD98EC88EE8CFEF92EA
:1008C000FF921F93CF93DF93EC01142F7B8F6A8FDE
:1008D00028EC269FC001279F900D11249D8F8C8F9F
:1008E000E42EF12CB70175956795759567958E8106
:1008F0009F810E948A0311FB662760F970E088855A
:1009000099850E948A03612F617070E08A859B85BA
:100910000E948A0381E090E0998F888FDF91CF91C8
:100920001F91FF90EF900895FC0101900020E9F7DE
:100930003197AF01481B590BBC0183EA91E00C943D
:10094000F9018F929F92AF92BF920F931F93CF9313
:10095000DF93CDB7DEB7A1970FB6F894DEBF0FBE19
:10096000CDBF19A2423008F44AE08E010F5D1F4F3F
:10097000842E912CB12CA12CA50194010E94F81574
:10098000E62FB901CA01EA30F4F4E05DD801EE9334
:100990008D01232B242B252B79F790E080E01097F5
:1009A00019F0CD010E949404A1960FB6F894DEBF11
:1009B0000FBECDBFDF91CF911F910F91BF90AF9030
:1009C0009F908F900895E95CE1CFCF93DF93DC0196
:1009D00014962D913C911597232B79F0FB01CD9125
:1009E000DC9160817181CE010E942E18009729F060
:1009F0008C1B9D0BDF91CF9108958FEF9FEFFACF66
:100A00000F931F93CF93DF93EC0188819981009717
:100A100059F02A813B812617370730F081E0DF91BA
:100A2000CF911F910F9108958B016F5F7F4F0E94AF
:100A30005917009759F0998388831B830A832C8167
:100A40003D81232B59F7FC011082E8CF80E0E7CFEE
:100A5000CF93DF93EC0188819981009711F00E9478
:100A6000D016198218821D821C821B821A82DF9185
:100A7000CF910895EF92FF920F931F93CF93DF933F
:100A8000EC017B018A01BA010E94000581110BC0B3
:100A9000CE010E942805CE01DF91CF911F910F91C9
:100AA000FF90EF9008951D830C83B7018881998191
:100AB0000E942718F0CFFB0101900020E9F7319741
:100AC000AF01461B570B0C943A05FC0111821082B2
:100AD0001382128215821482FB0101900020E9F733
:100AE0003197AF01461B570B0C943A05AF92BF925A
:100AF000CF92DF92EF92FF920F931F93CF93DF93EA
:100B00006C015B017A0189012417350720F48F2DD0
:100B10007901042F182F68E371E0C6010E94650572
:100B2000D5011496CD91DC91EC16FD06E0F40C177E
:100B30001D0708F4E801D501ED91FC911197EC0F28
:100B4000FD1F108110826D917C916E0D7F1DC6017D
:100B500061157105A1F00E945B05F501808191810D
:100B6000C80FD91F1883C601DF91CF911F910F9134
:100B7000FF90EF90DF90CF90BF90AF9008950E94CC
:100B80002805EBCFFC0180819181009711F00C9436
:100B9000D0160895CF93DF93EC01FB018081918102
:100BA000009791F00E94720F6430710581059105E4
:100BB00071F16CF46130710581059105D9F06230F5
:100BC000710581059105F9F0DF91CF9108956031AC
:100BD000710581059105F9F0603271058105910576
:100BE000F1F0683071058105910571F746E068E024
:100BF00070E003C040E061E070E088819981DF919E
:100C0000CF910C945F0444E062E070E0F6CF42E0E4
:100C100064E070E0F2CF41E060E170E0EECF47E0E9
:100C200060E270E0EACFCF92DF92EF92FF92CF9333
:100C3000DF93EC01072E000C880B990B0E94EC113E
:100C40002A893B894C895D890E9440132E853F8506
:100C5000488959890E944B126B017C01688579850E
:100C6000072E000C880B990B0E94EC119B01AC0124
:100C7000C701B6010E944B129B01AC0164E578EFFD
:100C80008DE290E40E945A1420E030E040E85FE3F7
:100C90000E9441139B01AC016A857B858C859D85F3
:100CA0000E94AD132C813D814E815F810E944113D2
:100CB000DF91CF91FF90EF90DF90CF9008952F922A
:100CC0003F924F925F926F927F928F929F92AF92DC
:100CD000BF92CF92DF92EF92FF920F931F93CF9329
:100CE000DF93CDB7DEB7C154D1090FB6F894DEBF9C
:100CF0000FBECDBF83EA91E00E9497021816190635
:100D00000CF043C468E371E0CE0101960E946505D2
:100D10000E94490297FD1EC08A309105D9F08AA32E
:100D20001BA20D811E810F5F1F4FB801CE010196DE
:100D30000E940005882361F329813A818D819E817B
:100D4000BE016E5D7F4F820F931F0E9427181E8386
:100D50000D83DECF8091400290914102009709F40B
:100D600051C069817A816115710509F449C04091CA
:100D70004202509143022D813E814217530708F4ED
:100D80003FC00E9427188D819E81909345028093D9
:100D900044021E821D82CE0101960E94C20540912E
:100DA0004402509145024115510509F4EEC360918A
:100DB000400270914102DB018C91882309F4E5C364
:100DC0001DAA1CAA1FAA1EAA19AE18AE611571058C
:100DD00021F0CE01C4960E943A050CA91DA9011567
:100DE000110539F1F80181918F01882311F1082E45
:100DF000000C990B0E941618F80131978083F2CFEE
:100E00000E94D01689819A8190934102809340027A
:100E10008B819C8190934302809342028D819E81BD
:100E200090934502809344021A8219821C821B828D
:100E3000B0CF60E271E0CE0101960E946505BE016F
:100E40006F5F7F4FCE01C4960E94E5048C01CE01F6
:100E500001960E94C20517FDDAC266E271E0CE017A
:100E60008E960E946505BE01625D7F4FCE01C496DD
:100E70000E94E50428AD39ADAC014F5F5F4FBE0164
:100E80006C5C7F4FCE0188960E94760568E271E027
:100E9000CE0101960E946505BE016F5F7F4FCE01B6
:100EA00088960E94E5048C01CE0101960E94C2053D
:100EB0000F3F1F4F09F4A3C268E271E0CE01019613
:100EC0000E946505BE016F5F7F4FCE0188960E942C
:100ED000E5049C0150E040E0BE01685D7F4FCE011B
:100EE00082960E9476058AA19BA110E0009719F0D6
:100EF0000E94720F162F10935B01CE0182960E9402
:100F0000C205CE0101960E94C20568E271E0CE01E1
:100F100001960E946505BE016F5F7F4FCE018896E6
:100F20000E94E5042CA53DA5AC014F5F5F4FBE01BB
:100F3000685D7F4FCE0182960E9476058AA19BA1B3
:100F400000E0009719F00E94720F062F00935A01DB
:100F5000CE0182960E94C205CE0101960E94C20572
:100F60001B3008F04CC20B3008F049C220905E01E3
:100F700030905F01D1011896CD90DD90ED90FC90FE
:100F80001B97612F70E090E080E00E94EC11A701B8
:100F900096010E94E511882309F431C2612F70E0A7
:100FA00090E080E00E94EA116CAF7DAF8EAF9FAF02
:100FB000A70196010E9440134B015C0120E030E044
:100FC000A9010E94551424013501181624F077FA5E
:100FD000709477F87094F101E080F180D7015C960D
:100FE0008D919C91648575850E94E415072E000CF7
:100FF000880B990B0E94EC11A30192010E944B12E5
:101000000E941F1422967FAF6EAF229701E010E07E
:1010100020E030E0A901C501B4010E945514181662
:1010200014F010E000E0F701178B068B10E000E0F1
:101030001BAE1AAE812C912C540122962EAD3FADE1
:1010400022974AAD5BAD421753070CF07CC1D1012A
:101050001E968C911E97811123C0F10186858823ED
:1010600009F4A5C02AAD3BAD2F5F3F4F3BAF2AAF80
:10107000D101ED91FC91228D2296EEADFFAD22972C
:101080002E9FC0012F9F900D1124959587952AAD15
:101090003BAD821793070CF453C10F5F1F4FCDCFA9
:1010A000ED91FC9186899789892B81F4D101ED918D
:1010B000FC91119786899789892B79F614968D91E1
:1010C0009C910E943C03892B41F607C0F10182816B
:1010D00093810E943C03892B49F7D101ED90FC904C
:1010E00011971C966D917C91072E000C880B990B23
:1010F0000E94EC112B013C01F701648D758D072EC8
:10110000000C880B990B0E94EC119B01AC01C301F0
:10111000B2010E94AD132B013C01D7015A966C918C
:1011200070E090E080E00E94EC119B01AC01C301F3
:10113000B2010E94AD139B01AC01C501B4010E9434
:1011400041134B015C01F701848995898130910538
:1011500009F458C008F44CC0029709F458C0B8010B
:10116000F101868197810E9413066B017C010E9428
:1011700026146230710548F0660F771F660F771FDF
:1011800065507109CB010197F1F7A7019601C701DD
:10119000B6010E94AA14882309F440C08AE291E0B3
:1011A0000E94940486E391E00E9494045BCF019036
:1011B000F081E02D86899789892B91F4D101ED91F9
:1011C000FC91119786899789892B09F04BCF14964A
:1011D0008D919C910E943C03892B09F07ECF42CFD8
:1011E000F101828193810E943C03892B39F375CFF1
:1011F00026E030E050E040E062E070E0C7010E948D
:101200000604ADCF27E030E041E050E0F5CF27E025
:1012100030E050E040E061E070E0F0CF26013701BF
:10122000E89477F82FEF3FEF4FE75FE7C301B20194
:101230000E94AA1481110DC02FEF3FEF4FE75FE727
:10124000C301B2010E94E51118161CF48EE291E070
:10125000A7CF2FEF3FEF4FE75FE4C701B6010E9432
:10126000551418161CF482E391E09ACF2FEF3FEF4C
:101270004FE75FECC701B6010E94E51187FDF3CF90
:1012800020E030E0A901C701B6010E94E51187FF07
:1012900009C06DE283EA91E00E94CF02F7FAF09470
:1012A000F7F8F0942AE037ED43EA5BE3C701B601B3
:1012B0000E9441132B013C010E9426146B017C010A
:1012C0000E94EA119B01AC01C301B2010E944013CC
:1012D0002B013C014AE0C701B6010E94A1046EE265
:1012E00083EA91E00E94CF0220E030E040E251E446
:1012F000C301B2010E944B122B013C010E94261433
:101300006B01F12CE12C4AE0C701B6010E94A10457
:10131000C701B6010E94EA119B01AC01C301B201F1
:101320000E94401320E030E040E251E40E944B1262
:101330000E94261490E080E04AE00E94A10432CF8F
:10134000015011097ACE1BA21AA21DA21CA21FA233
:101350001EA28E010F5F1F4F22E044E0C501B401C1
:101360000E94540F009709F42AC1BC01CE01829655
:101370000E945B0569E371E0CE0101960E9465055C
:10138000EAA0FBA0E114F10409F41EC10EA11FA103
:1013900001151105B9F08D819E81080F191FB80143
:1013A000CE0101960E940005882309F40DC1298110
:1013B0003A818D819E81B701820F931F0E94271869
:1013C0001E830D834D815E8169817A8183EA91E07C
:1013D0000E94F90186E391E00E949404CE010196F7
:1013E0000E94C205CE0182960E94C2058CAD9DADC1
:1013F000AEADBFADF10180879187A287B387CE01E3
:1014000088960E94C205CE018E960E94C2056FE3A7
:1014100071E0CE0101960E946505BE016F5F7F4FAE
:10142000CE01C4960E94E5048C01CE0101960E9473
:10143000C20517FD08C061E070E0809198019091AD
:1014400099010E948A0361E471E0CE0101960E9435
:101450006505BE016F5F7F4FCE01C4960E94E50413
:101460008C01CE0101960E94C20517FD08C070E0F4
:1014700060E080919801909199010E948A0363E451
:1014800071E0CE0101960E946505BE016F5F7F4F3E
:10149000CE01C4960E94E5048C01CE0101960E9403
:1014A000C20517FD2AC066E271E0CE0182960E9455
:1014B0006505BE016E5D7F4FCE01C4960E94E504B6
:1014C00028AD39ADAC014F5F5F4FBE016C5C7F4F03
:1014D000CE0101960E947605BE016F5F7F4F80911D
:1014E0005E0190915F010E94CA05CE0101960E94A3
:1014F000C205CE0182960E94C2056EE471E0CE0163
:1015000001960E946505BE016F5F7F4FCE01C496B4
:101510000E94E5048C01CE0101960E94C20517FDD0
:101520002AC066E271E0CE0182960E946505BE0186
:101530006E5D7F4FCE01C4960E94E50428AD39ADA3
:10154000AC014F5F5F4FBE016C5C7F4FCE010196D7
:101550000E947605BE016F5F7F4F80915C01909184
:101560005D010E94CA05CE0101960E94C205CE010E
:1015700082960E94C205CE01C4960E94C20568E30D
:1015800071E080E492E00E945B05CF5BDF4F0FB615
:10159000F894DEBF0FBECDBFDF91CF911F910F91A9
:1015A000FF90EF90DF90CF90BF90AF909F908F9083
:1015B0007F906F905F904F903F902F900895CE0155
:1015C00082960E942805D6CECE0101960E9428055B
:1015D000F9CE0E94A30281110C945F0608951F9218
:1015E0000F920FB60F9211242F933F938F939F93D7
:1015F000AF93BF9380919F019091A001A091A10111
:10160000B091A20130919A0123E0230F2D3758F5B4
:101610000196A11DB11D20939A0180939F01909383
:10162000A001A093A101B093A20180919B01909190
:101630009C01A0919D01B0919E010196A11DB11D3B
:1016400080939B0190939C01A0939D01B0939E0178
:10165000BF91AF919F918F913F912F910F900FBEAE
:101660000F901F90189526E8230F0296A11DB11D1B
:10167000D2CF1F920F920FB60F9211242F933F9348
:101680004F935F936F937F938F939F93AF93BF938A
:10169000EF93FF9383EA91E00E94AD02FF91EF91F7
:1016A000BF91AF919F918F917F916F915F914F917A
:1016B0003F912F910F900FBE0F901F9018951F9282
:1016C0000F920FB60F9211242F938F939F93EF9346
:1016D000FF93E091B301F091B4018081E091B901F1
:1016E000F091BA0182FD1BC090818091BC018F5F97
:1016F0008F732091BD01821741F0E091BC01F0E0B1
:10170000ED55FE4F958F8093BC01FF91EF919F9116
:101710008F912F910F900FBE0F901F901895808181
:10172000F4CFE3EAF1E01382128288EE93E0A0E0C6
:10173000B0E084839583A683B78382E191E09183AF
:10174000808385EC90E09587848784EC90E0978790
:10175000868780EC90E0918B808B81EC90E0938B7E
:10176000828B82EC90E0958B848B86EC90E0978B5B
:10177000868B118E128E138E148E68E371E080E4D6
:1017800092E00C946505CF93DF93CDB7DEB7A897B1
:101790000FB6F894DEBF0FBECDBF789484B58260DB
:1017A00084BD84B5816084BD85B5826085BD85B505
:1017B000816085BD80916E00816080936E00109283
:1017C00081008091810082608093810080918100FE
:1017D000816080938100809180008160809380008F
:1017E0008091B10084608093B1008091B0008160ED
:1017F0008093B00080917A00846080937A00809119
:101800007A00826080937A0080917A008160809370
:101810007A0080917A00806880937A001092C100EB
:10182000E091B301F091B40182E08083E091AF01D7
:10183000F091B0011082E091B101F091B2018FEC12
:1018400080831092BB01E091B701F091B80186E06E
:101850008083E091B501F091B60180818061808341
:10186000E091B501F091B601808188608083E091BC
:10187000B501F091B601808180688083E091B50167
:10188000F091B60180818F7D808386E090E00E9498
:1018900034169A83898330E020E041E06DE00E94B5
:1018A000EE0389819A81909399018093980186E053
:1018B00090E00E94341698A78FA330E020E041E02A
:1018C00063E00E94EE03AFA1B8A5B0939701A09387
:1018D000960186E090E00E9434164C0130E020E052
:1018E00041E064E00E94EE039092950180929401A1
:1018F00086E090E00E9434169A83898330E020E0ED
:1019000041E065E00E94EE03E981FA81F0939301E2
:10191000E093920186E090E00E9434169C838B83D2
:1019200030E020E041E066E00E94EE038B819C8184
:10193000909391018093900186E090E00E9434168C
:101940009E838D8330E020E041E067E00E94EE035B
:10195000AD81BE81B0938F01A0938E0186E090E0AF
:101960000E94341698878F8330E020E041E068E0E1
:101970000E94EE03EF81F885F0938D01E0938C01D6
:1019800086E090E00E9434169A87898730E020E054
:1019900041E069E00E94EE0389859A8590938B016E
:1019A00080938A0186E090E00E9434169C878B87A2
:1019B00030E020E041E06AE00E94EE03AB85BC85A8
:1019C000B0938901A093880186E090E00E943416CC
:1019D0009E878D8730E020E041E06BE00E94EE03BF
:1019E000ED85FE85F0938701E093860186E090E027
:1019F0000E943416988B8F8730E020E041E06CE045
:101A00000E94EE038F8598899093850180938401CD
:101A100086E090E00E9434169A8B898B21E030E0BA
:101A200040E063E00E94EE03A989BA89B093830184
:101A3000A093820186E090E00E9434169C8B8B8BF1
:101A400021E030E040E064E00E94EE03EB89FC8995
:101A5000F0938101E093800186E190E00E943416CA
:101A60006C0180E090E0A6E1B4E4F601808391830C
:101A7000A283B38380E090E0A8ECB2E484839583F2
:101A8000A683B78380E090E0AAEFB3E482879387D0
:101A9000A487B587AA24A394B12CB186A0868DEC27
:101AA0009CECACECBDE386879787A08BB18B8BE871
:101AB0009EEBA2EEB2E4828B938BA48BB58BD0927B
:101AC0007F01C0927E0186E090E00E9434169E8BDA
:101AD0008D8B30E020E041E06FE00E94EE038D89C5
:101AE0009E8990937D0180937C0186E090E00E9426
:101AF0003416988F8F8B30E020E041E060E10E9447
:101B0000EE03AF89B88DB0937B01A0937A0186E094
:101B100090E00E9434169A8F898F30E020E041E0F7
:101B200061E10E94EE03E98DFA8DF0937901E09373
:101B3000780186E090E00E9434169C8F8B8F30E015
:101B400020E041E062E10E94EE038B8D9C8D90933A
:101B500077018093760186E090E00E9434169E8F94
:101B60008D8F30E020E041E063E10E94EE03AD8D17
:101B7000BE8DB0937501A093740186E090E00E9441
:101B8000341698A38F8F30E020E041E064E10E949A
:101B9000EE03EF8DF8A1F0937301E093720186E0FC
:101BA00090E00E9434169AA389A330E020E041E03F
:101BB00065E10E94EE0389A19AA19093710180933F
:101BC000700186E090E00E9434161C0130E020E0B5
:101BD00041E066E10E94EE0330926F0120926E01B7
:101BE00086E090E00E9434162C0130E020E041E0D5
:101BF00067E10E94EE0350926D0140926C0186E015
:101C000090E00E9434163C0130E020E041E068E1C1
:101C10000E94EE0370926B0160926A0186E090E090
:101C20000E9434169CA38BA321E030E040E065E0E5
:101C30000E94EE03ABA1BCA1B0936901A09368011F
:101C400086E090E00E9434169EA38DA321E030E050
:101C500040E066E00E94EE03EDA1FEA1F093670173
:101C6000E093660186E190E00E9434167C0180E0FA
:101C700090E0A6E1B4E4F70180839183A283B3836B
:101C800080E090E0A8ECB2E484839583A683B783D8
:101C900080E090E0AAEFB3E482879387A487B587BA
:101CA000B186A0868DEC9CECACECBDE38687978773
:101CB000A08BB18B8BE89EEBA2EEB2E4828B938B70
:101CC000A48BB58BF0926501E092640180E290E014
:101CD0000E9434168C01DC0159961C921E92589772
:101CE00040E061E070E00E945F04F801158A148A08
:101CF0008FA198A59183808393828282A981BA81E2
:101D0000B583A4838B819C8197838683AD81BE81BB
:101D1000B187A0878F81988593878287A985BA85A7
:101D2000B587A4878B859C8597878687AD85BE857B
:101D3000B18BA08B8F859889938B828BB78AA68A6B
:101D400090E0892E91E0992E978E868E10936301F4
:101D50000093620180E290E00E9434169A838983A6
:101D6000DC0159961C921E92589740E061E070E0A9
:101D70000E945F04E981FA81158A148A8D899E89FF
:101D800091838083AF89B88DB383A283898D9A8D27
:101D900095838483AB8DBC8DB783A6838D8D9E8DFB
:101DA00091878087AF8DB8A1B387A28789A19AA1B7
:101DB0009587848737862686518A408A738A628A05
:101DC000B78AA68A978E868EF0936101E0936001B0
:101DD0008FE090E00E943416FC011183008308E03C
:101DE00010E0158704871686A989BA89B383A28370
:101DF0008B899C899583848310861186128613862D
:101E0000D782C682F0935F01E0935E018FE090E09D
:101E10000E943416FC01A981BA81B183A083158781
:101E2000048716868BA19CA193838283ADA1BEA15A
:101E3000B583A4831086118612861386F782E68204
:101E4000F0935D01E0935C010E94D3014B015C01C2
:101E500028EBC22E2BE0D22EE12CF12C0E94D301D4
:101E6000681979098A099B09683E734081059105C3
:101E7000A8F3B1E0CB1AD108E108F108E8EE8E0E24
:101E8000E3E09E1EA11CB11CC114D104E104F104C5
:101E900029F70E94A3028823E1F30E945F06F9CF8D
:101EA00080E492E00C94C205EF920F931F93CF93BE
:101EB000DF93E80134E047FD34E1042E000C550BBC
:101EC00057FF03C0519541955109E32E022F242F4E
:101ED000AE010E94AE0FCE01DF91CF911F910F9105
:101EE000EF9008951F93FC0199278827BC01E8947F
:101EF00011911032E9F3193010F01E30C8F31B3283
:101F000051F01D3249F4689406C00E94990F610F88
:101F1000711D811D911D119110531A30B0F33EF4C3
:101F200090958095709561957F4F8F4F9F4F1F9132
:101F30000895592F482F372F262F660F771F881F98
:101F4000991F660F771F881F991F620F731F841FC9
:101F5000951F660F771F881F991F0895A9E0B0E0AD
:101F6000E4EBFFE00C940F136A01F22EB02E102F59
:101F7000FBE3AF2EA01608F41BE31F5F012F27E041
:101F8000AE014F5F5F4F0E940D11BC018981982FF8
:101F90009970913009F43FC09BE2E1FC04C09E2D92
:101FA0009170E0FC3AC05E2D5071E82FE87083FF1D
:101FB00046C084E0911101C083E0EF2DE81B8F152E
:101FC00008F0E0E0D6018E2F20E2552351F199234D
:101FD00029F0D6019C93C60101966C0196012D5FF4
:101FE0003F4FE2FE24C08EE4D6018C9391E411961B
:101FF0009C93119712968C93D9018E2F90E28111A8
:102000001BC0E20FF32FF11D10828EEF9FEF299678
:10201000ECE00C942B139DE2C6CF90E2C4CF2D933D
:1020200081508111FCCFCE0ED11CE0E0D0CF8EE6E6
:10203000D6018C9391E6DBCF9D938150E0CF482F62
:10204000447082FF3DC084E0911101C083E08F1590
:1020500010F4EF2DE81BD6018E2F20E2552309F155
:10206000992329F0D6019C93C60101966C01960133
:102070002D5F3F4FE2FE1BC089E4D6018C938EE4B6
:1020800011968C93119786E412968C93D9018E2F1A
:1020900090E2882309F4B5CF9D938150FACF2D9318
:1020A00081508111FCCFCE0ED11CE0E0D9CF89E662
:1020B000D6018C938EE611968C93119786E6E4CF29
:1020C0009B0177FF02C030E020E0A1E0B0E0911179
:1020D00002C0B0E0A0E0F9013196AE0FBF1F8B2C1B
:1020E000912CBB2009F461C05401EFEFAE1ABE0A77
:1020F000AA0DBB1DFA161B0619F014F04F2D4A1B32
:10210000511188C0E3FC59C07601A42FB0E2A1119F
:102110004FC0C40ED11C992309F45BC040E0D60126
:102120001196F60190836D01552309F448C0012FE3
:10213000060F9A81582F507184FF03C0913309F420
:10214000015010160CF047C0093008F008E0EEE22C
:10215000FE2E5B01A01AB10885019194819491082B
:102160002F3F320729F4D601FC92F60131966F0118
:102170006217730794F1021713077CF5DB01A21BAA
:10218000B30BAA24A394B12CAC0EBD1EAA0DBB1D8B
:1021900011968C9121503109D601119628153905D7
:1021A000F4F0F60180836D01DBCFB12CA12CA0CF20
:1021B000F701B1937F01A150AACF9111B0CFD60101
:1021C000942F50E302C05D9391509111FCCFC40E47
:1021D000D11C40E0ACCF01E0BACF80E3DBCF621787
:1021E000730731F4963388F4953311F4552369F06D
:1021F000F6018083FD01842F90E2811108C0A40FB5
:10220000B11D1C9290E080E002CF81E3F1CF919369
:102210008150F3CF911183CF8ACF283008F027E087
:102220003327DA01990F311D87FD91600096610512
:10223000710539F432602E5F3D9330E32A95E1F762
:1022400008959F3F30F080387105610509F03C5FCB
:102250003C5F3D93913008F08068911DDF93CF93F0
:102260001F930F93FF92EF92192F987F9695E92F66
:1022700096959695E90FFF27EC5BFE4F992733273C
:10228000EE24FF24A701E70105900894079428F4A1
:10229000360FE71EF81E491F511D660F771F881F56
:1022A000991F0694A1F70590079428F4E70EF81EED
:1022B000491F561FC11D770F881F991F661F06945F
:1022C000A1F70590079428F4F80E491F561FC71F61
:1022D000D11D880F991F661F771F0694A1F70590DF
:1022E000079420F4490F561FC71FD81F990F661F68
:1022F000771F881F0694A9F784911095177041F0F5
:10230000D695C79557954795F794E7941A95C1F7D1
:10231000EAEEF0E0689415901591359165919591EC
:1023200005907FE27395E118F10A430B560BC90B38
:10233000D009C0F7E10CF11E431F561FC91FD01D65
:102340007EF4703311F48A95E6CFE894015030F0B2
:10235000080F0AF40027021708F4202F2395022FF4
:102360007A3328F079E37D932A95E9F710C07D93BD
:102370002A9589F60694979567953795179517943A
:10238000E118F10A430B560BC90BD00998F02395BD
:102390007E9173957A3308F070E37C932013B8F73D
:1023A0007E9170617D9330F0839571E37D9370E34E
:1023B0002A95E1F71124EF90FF900F911F91CF9193
:1023C000DF91992787FD909508950E94271208F4C0
:1023D00081E00895E89409C097FB3EF490958095BC
:1023E000709561957F4F8F4F9F4F9923A9F0F92FDB
:1023F00096E9BB279395F695879577956795B79559
:10240000F111F8CFFAF4BB0F11F460FF1BC06F5F3E
:102410007F4F8F4F9F4F16C0882311F096E911C050
:10242000772321F09EE8872F762F05C0662371F071
:1024300096E8862F70E060E02AF09A95660F771F85
:10244000881FDAF7880F9695879597F90895990F61
:102450000008550FAA0BE0E8FEEF16161706E8076E
:10246000F907C0F012161306E407F50798F0621B8F
:10247000730B840B950B39F40A2661F0232B242B64
:10248000252B21F408950A2609F4A140A6958FEF83
:10249000811D811D08950E945E120C94CF120E942E
:1024A000C11238F00E94C81220F0952311F00C944C
:1024B000B8120C94BE1211240C9403130E94E01263
:1024C00070F3959FC1F3950F50E0551F629FF00187
:1024D000729FBB27F00DB11D639FAA27F00DB11DA0
:1024E000AA1F649F6627B00DA11D661F829F222729
:1024F000B00DA11D621F739FB00DA11D621F839FB0
:10250000A00D611D221F749F3327A00D611D231F85
:10251000849F600D211D822F762F6A2F11249F57D3
:1025200050409AF0F1F088234AF0EE0FFF1FBB1FD6
:10253000661F771F881F91505040A9F79E3F510595
:1025400080F00C94B8120C9403135F3FE4F3983EB0
:10255000D4F3869577956795B795F795E7959F5F3F
:10256000C1F7FE2B880F911D9695879597F90895D1
:1025700097F99F6780E870E060E008959FEF80EC36
:10258000089500240A9416161706180609060895D9
:1025900000240A9412161306140605060895092E3F
:1025A0000394000C11F4882352F0BB0F40F4BF2BAE
:1025B00011F460FF04C06F5F7F4F8F4F9F4F0895EE
:1025C00057FD9058440F551F59F05F3F71F04795E4
:1025D000880F97FB991F61F09F3F79F087950895C9
:1025E000121613061406551FF2CF4695F1DF08C0E8
:1025F000161617061806991FF1CF86957105610505
:1026000008940895E894BB2766277727CB0197F9AC
:1026100008952F923F924F925F926F927F928F9286
:102620009F92AF92BF92CF92DF92EF92FF920F9361
:102630001F93CF93DF93CDB7DEB7CA1BDB0B0FB66B
:10264000F894DEBF0FBECDBF09942A883988488828
:102650005F846E847D848C849B84AA84B984C884BE
:10266000DF80EE80FD800C811B81AA81B981CE0FB5
:10267000D11D0FB6F894DEBF0FBECDBFED0108959A
:102680005058BB27AA270E9458130C94CF120E94BF
:10269000C11238F00E94C81220F039F49F3F19F49B
:1026A00026F40C94BE120EF4E095E7FB0C94B812DD
:1026B000E92F0E94E01258F3BA17620773078407E4
:1026C000950720F079F4A6F50C9402130EF4E0952A
:1026D0000B2EBA2FA02D0B01B90190010C01CA01DC
:1026E000A0011124FF27591B99F0593F50F4503E87
:1026F00068F11A16F040A22F232F342F4427585F79
:10270000F3CF469537952795A795F0405395C9F790
:102710007EF41F16BA0B620B730B840BBAF0915048
:10272000A1F0FF0FBB1F661F771F881FC2F70EC0E7
:10273000BA0F621F731F841F48F4879577956795BA
:10274000B795F7959E3F08F0B0CF9395880F08F0A6
:102750009927EE0F9795879508950E94C1130C94C1
:10276000CF120E94C81258F00E94C11240F029F402
:102770005F3F29F00C94B81251110C9403130C9480
:10278000BE120E94E01268F39923B1F3552391F32E
:10279000951B550BBB27AA2762177307840738F0D0
:1027A0009F5F5F4F220F331F441FAA1FA9F335D02D
:1027B0000E2E3AF0E0E832D091505040E695001CE1
:1027C000CAF72BD0FE2F29D0660F771F881FBB1F9B
:1027D000261737074807AB07B0E809F0BB0B802D79
:1027E000BF01FF2793585F4F3AF09E3F510578F0A5
:1027F0000C94B8120C9403135F3FE4F3983ED4F3A7
:10280000869577956795B795F7959F5FC9F7880F78
:10281000911D9695879597F90895E1E0660F771FCA
:10282000881FBB1F621773078407BA0720F0621B5B
:10283000730B840BBA0BEE1F88F7E09508950E9486
:1028400026146894B1110C94031308950E94E812A1
:1028500088F09F5798F0B92F9927B751B0F0E1F061
:10286000660F771F881F991F1AF0BA95C9F714C011
:10287000B13091F00E940213B1E008950C9402135C
:10288000672F782F8827B85F39F0B93FCCF386954A
:1028900077956795B395D9F73EF4909580957095A7
:1028A00061957F4F8F4F9F4F08950E94271208F424
:1028B0008FEF0895FA01EE0FFF1F309621053105C5
:1028C000A1F16115710561F48038BFE39B0749F1FF
:1028D00068949038810561F08038BFEF9B0741F024
:1028E00099234AF5FF3FE1053105210519F1E894E7
:1028F0000894E795D901AA2329F4AB2FBE2FF85FDE
:10290000D0F310C0FF5F70F4A695E0F7F73950F0F0
:1029100019F0FF3A38F49F779F930DD00F9007FC82
:102920009058089546F00C94BE1260E070E080E884
:102930009FE308954FE79F775F934F933F932F93C4
:102940000E945A152F913F914F915F910E944B1217
:102950000C94B7140E942712880B990B089529F440
:1029600016F00C94B8120C9402130C94BE120E9430
:10297000E812A8F39638A0F707F80F92E8942BE333
:102980003AEA48EB5FE70E9461120F920F920F92B2
:102990004DB75EB70F920E94A215E8E6F0E00E94E4
:1029A000E9144F915F91EF91FF91E595EE1FFF1FA5
:1029B00049F0FE57E0684427EE0F441FFA95E1F70F
:1029C0004195550B0E941C150F9007FE0C94101595
:1029D0000895DF93CF931F930F93FF92EF92DF92AF
:1029E0007B018C01689406C0DA2EEF010E945E1212
:1029F000FE01E894A5912591359145915591A6F355
:102A0000EF010E945813FE019701A801DA9469F7BB
:102A1000DF90EF90FF900F911F91CF91DF9108957C
:102A20009B01AC0160E070E080E89FE30C94AD1383
:102A30000C94B8120C94D6150E94E812D8F399237E
:102A4000C9F3940F511DA3F39150504094F059F0E5
:102A5000882332F0660F771F881F91505040C1F7CE
:102A60009E3F51052CF7880F911D9695879597F9F4
:102A700008955F3FACF0983E9CF0BB278695779514
:102A80006795B79508F4B1609395C1F7BB0F58F7F8
:102A900011F460FFE8CF6F5F7F4F8F4F9F4FE3CF01
:102AA0000C94031316F00C94D6150C94BE12689473
:102AB0000C94B8120E94E812A8F39923C1F3AEF364
:102AC000DF93CF931F930F93FF92C92FDD278823A6
:102AD0002AF02197660F771F881FDAF720E030E091
:102AE00040E85FEB9FE3883920F0803E38F0219684
:102AF0008F770E944113E0E9F0E004C00E94411387
:102B0000EDEBF0E00E94E9148B01BE01EC01FB2E1D
:102B10006F5771097595771F880B990B0E94EC11FF
:102B200028E132E741E35FE30E945E12AF2D980196
:102B3000AE01FF900F911F91CF91DF910E9458132A
:102B40000C94CF12FA01DC01AA0FBB1F9B01AC0150
:102B5000BF5728F4222733274427507820C0B75185
:102B600090F4AB2F0024469537952795011CA3952B
:102B7000D2F3002071F0220F331F441FB395DAF314
:102B80000ED00C94401361307105A0E88A07B94655
:102B900030F49B01AC016627772788279078309620
:102BA00021F0208331834283538308959F3F31F086
:102BB000915020F4879577956795B795880F911D6B
:102BC0009695879597F9089597FB072E16F400942C
:102BD00007D077FD09D00E941A1607FC05D03EF4F5
:102BE000909581959F4F0895709561957F4F0895B9
:102BF000A1E21A2EAA1BBB1BFD010DC0AA1FBB1F01
:102C0000EE1FFF1FA217B307E407F50720F0A21B72
:102C1000B30BE40BF50B661F771F881F991F1A94DF
:102C200069F760957095809590959B01AC01BD0109
:102C3000CF010895AA1BBB1B51E107C0AA1FBB1FF0
:102C4000A617B70710F0A61BB70B881F991F5A9538
:102C5000A9F780959095BC01CD010895EE0FFF1F57
:102C60000590F491E02D09940F931F93CF93DF9378
:102C70008230910510F482E090E0E0914802F091FA
:102C8000490230E020E0B0E0A0E0309799F421154F
:102C9000310509F44AC0281B390B24303105D8F519
:102CA0008A819B816115710589F1FB019383828380
:102CB000FE0111C0408151810281138148175907DB
:102CC000E0F04817590799F4109761F012960C93A9
:102CD000129713961C933296CF01DF91CF911F91DB
:102CE0000F9108950093480210934902F4CF2115E3
:102CF000310551F04217530738F0A901DB019A0161
:102D0000BD01DF01F801C1CFEF01F9CF9093490276
:102D100080934802CDCFFE01E20FF31F8193919380
:102D20002250310939832883D7CF20914602309130
:102D30004702232B41F420910A0130910B0130937B
:102D40004702209346022091080130910901211584
:102D5000310541F42DB73EB740910C0150910D0162
:102D6000241B350BE0914602F0914702E217F3076E
:102D7000A0F42E1B3F0B2817390778F0AC014E5FEB
:102D80005F4F2417350748F04E0F5F1F50934702DF
:102D900040934602819391939FCFF0E0E0E09CCF77
:102DA000CF93DF930097E9F0FC01329713821282F0
:102DB000A0914802B0914902ED0130E020E0109767
:102DC000A1F420813181820F931F2091460230911E
:102DD00047022817390709F061C0F0934702E093D2
:102DE0004602DF91CF910895EA01CE17DF07E8F59B
:102DF0004A815B819E0141155105B1F7E901FB83D1
:102E0000EA8349915991C40FD51FEC17FD0761F46E
:102E1000808191810296840F951FE90199838883AF
:102E2000828193819B838A83F0E0E0E012968D910A
:102E30009C9113970097B9F52D913C911197CD0175
:102E40000296820F931F2091460230914702281765
:102E5000390739F6309751F510924902109248021D
:102E6000B0934702A0934602BCCFD383C283408174
:102E70005181840F951FC817D90761F44E5F5F4FCA
:102E800088819981480F591F518340838A819B8192
:102E9000938382832115310509F0B0CFF093490265
:102EA000E09348029ECFFD01DC01C0CF1382128265
:102EB000D7CFB0E0A0E0EFE5F7E10C940B138C0165
:102EC000009751F4CB010E9434168C01C801CDB794
:102ED000DEB7E0E10C942713FC01E60FF71F9C011D
:102EE00022503109E217F30708F49DC0D901CD91B2
:102EF000DC911197C617D70798F0C530D10530F38C
:102F0000CE0104978617970708F3C61BD70B2297A5
:102F1000C193D1936D937C93CF010E94D016D6CFED
:102F20005B01AC1ABD0A4C018C0E9D1EA09148029B
:102F3000B0914902512C412CF12CE12C109731F524
:102F400080914602909147028815990509F05CC06E
:102F50004616570608F058C0809108019091090163
:102F6000009741F48DB79EB740910C0150910D012F
:102F7000841B950BE817F90708F055C0F09347023A
:102F8000E0934602F90171836083A0CF8D919C91FB
:102F9000119712966C90129713967C901397A81520
:102FA000B90559F56C0142E0C40ED11CCA14DB040A
:102FB00020F1AC014A195B09DA011296159780F0ED
:102FC0006282738251834083D9016D937C93E114B3
:102FD000F10471F0D7011396FC93EE93129776CF1C
:102FE00022968C0F9D1FF90191838083F301EFCF0F
:102FF000F0934902E093480269CF4816590608F455
:103000002C017D01D3019ACFCB010E9434167C01A3
:10301000009749F0AE01B8010E941E18C8010E9435
:10302000D016870153CF10E000E050CF91110895E2
:1030300081568A5108F4805285580895FB01DC01BD
:1030400002C001900D9241505040D8F70895FB0105
:10305000DC0101900D920020E1F70895FB015191F0
:103060005523A9F0BF01DC014D9145174111E1F74E
:1030700059F4CD010190002049F04D9140154111C6
:10308000C9F3FB014111EFCF81E090E00197089572
:1030900011E0C0E2D1E004C0FE010E942E1621968C
:0A30A000C132D107C9F7F894FFCF41
:1030AA000901030206040C0800004A02800000001D
:1030BA000000CF02F90126021C0397023502890299
:1030CA004D4F5645520020002C006E616E00696E0D
:1030DA0066006F7666000D0A00646973743A004CE4
:1030EA000044004D4F444F504153534F58004D4FE9
:0A30FA00444F504153534F5900005A
:00000001FF
