:100000000C94C2000C94EA000C94EA000C94EA00F0
:100010000C94EA000C94EA000C94EA000C94EA00B8
:100020000C94EA000C94EA000C94EA000C94EA00A8
:100030000C94EA000C94EA000C94EA000C94EA0098
:100040000C941B0B0C94EA000C948B0B0C94650B1A
:100050000C94EA000C94EA000C94EA000C94EA0078
:100060000C94EA000C94EA0007634236B79BD8A7C9
:100070001A39685618AEBAAB558C1D3CB7CC5763CD
:10008000BD6DEDFD753EF6177231BF000000803F7B
:1000900008000000BE922449123EABAAAA2ABECD97
:1000A000CCCC4C3E00000080BEABAAAAAA3E000009
:1000B0000000BF000000803F000000000008417801
:1000C000D3BB4387D1133D190E3CC3BD4282AD2B38
:1000D0003E68EC8276BED98FE1A93E4C80EFFFBE30
:1000E00001C4FF7F3F00000000004E414E494E49D1
:1000F0005459494E46CDCCCC3D0AD7233C17B7D1F5
:100100003877CC2B329595E6241FB14F0A0000209A
:10011000410000C84200401C4620BCBE4CCA1B0E19
:100120005AAEC59D7400000000230026002900007F
:10013000000000240027002A0000000000250028FD
:10014000002B00040404040404040402020202025A
:10015000020303030303030102040810204080018B
:10016000020408102001020408102000000008000A
:10017000020100000304070000000000000000006E
:10018000BD0BC70F11241FBECFEFD8E0DEBFCDBF20
:1001900022E0A4E5B1E001C01D92A834B207E1F766
:1001A00011E0A0E0B1E0E2E1F0E302C005900D92C1
:1001B000A435B107D9F710E0C1ECD0E004C0219715
:1001C000FE010E94E215C03CD107C9F70E94EF0B67
:1001D0000C94FC170C940000833081F028F48130DB
:1001E00099F08230A9F008958730A9F08830C9F0DD
:1001F0008430B1F4809180008F7D03C080918000B5
:100200008F7780938000089584B58F7784BD08959B
:1002100084B58F7DFBCF8091B0008F778093B00045
:1002200008958091B0008F7DF9CF1F93CF93DF9316
:10023000282F30E0F901E559FE4F8491F901E95A80
:10024000FE4FD491F901ED5BFE4FC491CC23A9F090
:10025000162F81110E94EC00EC2FF0E0EE0FFF1F33
:10026000E75CFE4FA591B4918FB7F894EC91111112
:1002700008C0D095DE23DC938FBFDF91CF911F9113
:100280000895DE2BF8CFCF93DF9390E0FC01E95A7D
:10029000FE4F24918D5B9E4FFC0184918823D1F009
:1002A00090E0880F991FFC01E15DFE4FA591B4918C
:1002B000FC01E75CFE4FC591D49161110EC09FB760
:1002C000F8948C91E22FE0958E238C932881E22381
:1002D000E8839FBFDF91CF9108958FB7F894EC9199
:1002E000E22BEC938FBFF6CF3FB7F8948091970144
:1002F00090919801A0919901B0919A0126B5A89B7F
:1003000005C02F3F19F00196A11DB11D3FBFBA2FA7
:10031000A92F982F8827BC01CD01620F711D811D67
:10032000911D42E0660F771F881F991F4A95D1F7EC
:1003300008958F929F92AF92BF92CF92DF92EF92E9
:10034000FF920E9474014B015C0188EBC82E8BE088
:10035000D82EE12CF12C0E947401681979098A09C0
:100360009B09683E734081059105A8F321E0C21AFC
:10037000D108E108F10888EE880E83E0981EA11CE0
:10038000B11CC114D104E104F10429F7FF90EF90EE
:10039000DF90CF90BF90AF909F908F900895089579
:1003A000AF92BF92CF92DF92EF92FF920F931F9383
:1003B000CF93DF936C017B018B01040F151FEB01C1
:1003C0005E01AE18BF08C017D10759F06991D60178
:1003D000ED91FC910190F081E02DC6010995892BEA
:1003E00079F7C501DF91CF911F910F91FF90EF90A9
:1003F000DF90CF90BF90AF900895FC01538D448D56
:10040000252F30E0842F90E0821B930B541710F0BF
:10041000CF96089501970895FC01918D828D9817CC
:1004200061F0A28DAE0FBF2FB11D5D968C91928DA4
:100430009F5F9F73928F90E008958FEF9FEF0895D5
:100440002FB7F89480919B0190919C01A0919D0100
:10045000B0919E012FBF8093A7019093A801A09314
:10046000A901B093AA018FE991E00E940C0297FFC5
:1004700026C02FB7F89480919B0190919C01A09188
:100480009D01B0919E012FBF4091A7015091A801FD
:100490006091A9017091AA01841B950BA60BB70B63
:1004A0004091A3015091A4016091A5017091A60112
:1004B00084179507A607B707B0F28FEF9FEF08954F
:1004C000FC01918D828D981731F0828DE80FF11D1E
:1004D000858D90E008958FEF9FEF0895FC01918D39
:1004E000228D892F90E0805C9F4F821B91098F7332
:1004F000992708958FE991E00E946E0221E0892BEF
:1005000009F420E0822F0895FC01A48DA80FB92FD3
:10051000B11DA35ABF4F2C91848D90E001968F732B
:100520009927848FA689B7892C93A089B1898C914A
:10053000837080648C93938D848D981306C0028899
:10054000F389E02D80818F7D80830895EF92FF9263
:100550000F931F93CF93DF93EC0181E0888F9B8DE6
:100560008C8D98131AC0E889F989808185FF15C0A0
:100570009FB7F894EE89FF896083E889F9898081C3
:100580008370806480839FBF81E090E0DF91CF9192
:100590001F910F91FF90EF900895F62E0B8D10E0B4
:1005A0000F5F1F4F0F731127E02E8C8D8E110CC023
:1005B0000FB607FCFACFE889F989808185FFF5CF6E
:1005C000CE010E948402F1CFEB8DEC0FFD2FF11DC7
:1005D000E35AFF4FF0829FB7F8940B8FEA89FB89AB
:1005E00080818062CFCFCF93DF93EC01888D882309
:1005F000B9F0AA89BB89E889F9898C9185FD03C086
:10060000808186FD0DC00FB607FCF7CF8C9185FF6A
:10061000F2CF808185FFEDCFCE010E948402E9CF29
:10062000DF91CF9108950F931F93CF93DF93EC0148
:100630002A8188819981019749F530E0F901E559CE
:10064000FE4F8491F901E95AFE4F0491F901ED5BE7
:10065000FE4F1491112391F181110E94EC00E12FC2
:10066000F0E0EE0FFF1FEB5DFE4FA591B491EC9112
:100670000E2331E020E009F430E0832F922F9D8398
:100680008C83DF91CF911F910F9108952E3008F048
:100690002E502770206420937C0080917A00806423
:1006A00080937A0080917A0086FDFCCF909178004B
:1006B00080917900892798278927E1CF90E080E011
:1006C000DECFCF93DF93EC01888D998D019751F4A4
:1006D0008E859F850E941303892B49F48FEF9FEF2E
:1006E0009D8F8C8F8C8D9D8DDF91CF91089581E0B2
:1006F00090E0F6CF1F93CF93DF93FC017583648363
:10070000128180819181019731F4812FDF91CF9106
:100710001F910C941501EB0161E0812F0E944301B0
:10072000209711F460E0F1CFCF3FD10511F461E0E3
:10073000ECCFE12FF0E0E559FE4FE491E33031F1E9
:1007400040F4E130B1F0E230E1F0C038D1057CF79F
:10075000E9CFE73029F1E83059F1E430B1F7809181
:100760008000806280938000D0938B00C0938A00C9
:1007700004C084B5806884BDC7BDDF91CF911F914F
:10078000089584B5806284BDC8BDF7CF8091800094
:10079000806880938000D0938900C0938800EDCF5B
:1007A0008091B00080688093B000C093B300E5CF23
:1007B0008091B00080628093B000C093B400DDCF20
:1007C0000F931F93CF93DF93EC01862F89011D8236
:1007D0001C8221E030E0398328836A834B83642FB5
:1007E0000E944301B801CE01DF91CF911F910F917B
:1007F0000C947A03AF92BF92CF92DF92EF92FF9266
:100800000F931F93CF93DF93EC015B016A01790192
:10081000ECA1FDA18E8D9F8DE80FF91F0081602F47
:10082000617070E0888999890E947A0301FB6627CC
:1008300060F970E08A899B890E947A0302FB66272F
:1008400060F970E08C899D890E947A0303FB66271A
:1008500060F970E08E899F890E947A038C8D9D8D4E
:100860006E8D7F8D0197C9F46A0D7B1D6E157F0516
:10087000BCF47F8F6E8F8E8D9F8D8C159D0514F42B
:10088000FF8EEE8EDF91CF911F910F91FF90EF9031
:10089000DF90CF90BF90AF9008956A197B09E6CFA3
:1008A000DF8ECE8EE8CFCF93DF93FC01208D318D8C
:1008B0002130310581F4C485D585CE010E94130312
:1008C00061E070E0892B11F070E060E0CE01DF9113
:1008D000CF910C947A03228D338D2130310589F02C
:1008E00030F02230310591F0DF91CF91089527E06B
:1008F00030E041E050E062E070E0DF91CF910C9495
:10090000FA0326E030E050E040E0F5CF27E030E0A9
:1009100050E040E061E070E0F0CF0F931F93CF9381
:10092000DF93EC0179A368A328EC269FC001279FE1
:10093000900D11249BA38AA3042F10E0B801759594
:100940006795759567958E819F810E947A0301FB5B
:10095000662760F970E0888599850E947A0370E0C7
:1009600060E08A859B850E947A0381E090E09F8FFA
:100970008E8FDF91CF911F910F910895FC0101900F
:100980000020E9F73197AF01481B590BBC018FE9F3
:1009900091E00C94D0018F929F92AF92BF920F93EF
:1009A0001F93CF93DF93CDB7DEB7A1970FB6F8941F
:1009B000DEBF0FBECDBF19A2423008F44AE08E015F
:1009C0000F5D1F4F842E912CB12CA12CA5019401F9
:1009D0000E94AC15E62FB901CA01EA30F4F4E05DDB
:1009E000D801EE938D01232B242B252B79F790E052
:1009F00080E0109719F0CD010E94BE04A1960FB6B9
:100A0000F894DEBF0FBECDBFDF91CF911F910F9144
:100A1000BF90AF909F908F900895E95CE1CF4F9287
:100A20005F926F927F928F929F92AF92BF92CF927E
:100A3000DF92EF92FF926B017C01AC019B010E945F
:100A40005E148823C1F080E291E00E94BE047C0124
:100A50008CE291E00E94BE048E0D9F1DFF90EF90EE
:100A6000DF90CF90BF90AF909F908F907F906F90CE
:100A70005F904F90089546015701E894B7F82FEF23
:100A80003FEF4FE75FE7C501B4010E945E1481119B
:100A90000DC02FEF3FEF4FE75FE7C501B4010E94A4
:100AA0007C1118161CF484E291E0CFCF2FEF3FEFBA
:100AB0004FE75FE4C701B6010E94091418161CF441
:100AC00088E291E0C2CF2FEF3FEF4FE75FECC70125
:100AD000B6010E947C1187FDF3CF20E030E0A90130
:100AE000C701B6010E947C11B12CA12C87FF0AC05E
:100AF0006DE28FE991E00E94A6025C01F7FAF094A2
:100B0000F7F8F0942AE037ED43EA5BE3C701B6015A
:100B10000E94F5122B013C010E94DA136B017C014B
:100B20000E9481119B01AC01C301B2010E94F41229
:100B30002B013C014AE0C701B6010E94CB047C01B5
:100B4000EA0CFB1C6EE28FE991E00E94A602E80E1F
:100B5000F91E20E030E040E251E4C301B2010E94FE
:100B6000E2112B013C010E94DA134B01B12CA12CA4
:100B70004AE0C501B4010E94CB04E80EF91EC5018C
:100B8000B4010E9481119B01AC01C301B2010E941A
:100B9000F41220E030E040E251E40E94E2110E94B1
:100BA000DA1390E080E04AE00E94CB04E80EF91EE0
:100BB0004FCFFC0180819181009711F00C94841635
:100BC0000895CF93DF93DC0114962D913C911597F6
:100BD000232B79F0FB01CD91DC9160817181CE01F5
:100BE0000E94E217009729F08C1B9D0BDF91CF919B
:100BF00008958FEF9FEFFACF0F931F93CF93DF935B
:100C0000EC0188819981009759F02A813B81261750
:100C1000370730F081E0DF91CF911F910F91089558
:100C20008B016F5F7F4F0E940D17009759F09983DA
:100C300088831B830A832C813D81232B59F7FC0178
:100C40001082E8CF80E0E7CFEF92FF920F931F93DF
:100C5000CF93DF93EC017B018A01BA010E94FC056E
:100C600028813981811114C02115310519F0C9017C
:100C70000E948416198218821D821C821B821A828D
:100C8000CE01DF91CF911F910F91FF90EF900895CA
:100C90001D830C83B701C9010E94DB17F1CFFC0152
:100CA000118210821382128215821482FB0101903C
:100CB0000020E9F73197AF01461B570B0C9424062F
:100CC000AF92BF92CF92DF92EF92FF920F931F935A
:100CD000CF93DF93EC016B015A017901241735079B
:100CE00020F48B2D5901E42EF82E6EE271E0CE0136
:100CF0000E944F06D60114960D911C91A016B106C4
:100D000028F5E016F10608F48701D601ED91FC9173
:100D10001197E00FF11FF08010826D917C916A0DA8
:100D20007B1D61157105F1F0FB0101900020E9F7D1
:100D30003197AF01461B570BCE010E942406F601E6
:100D400080819181080F191FD801FC92CE01DF919B
:100D5000CF911F910F91FF90EF90DF90CF90BF90B8
:100D6000AF90089588819981009711F00E948416B0
:100D7000198218821D821C821B821A82E0CFCF93B7
:100D8000DF93EC01FB0180819181009769F00E9463
:100D9000CF0F623071058105910501F144F4613096
:100DA00071058105910589F0DF91CF910895643037
:100DB000710581059105B1F06830710581059105D6
:100DC00099F746E068E070E003C040E061E070E061
:100DD00088819981DF91CF910C948D0444E062E089
:100DE00070E0F6CF42E064E070E0F2CF2F923F92E5
:100DF0004F925F926F927F928F929F92AF92BF922B
:100E0000CF92DF92EF92FF920F931F93CF93DF93D6
:100E1000EC0188EE93E0689F7001699FF00C789F69
:100E2000F00C112488859985E81AF90A088119813E
:100E3000B7010F2C000C880B990B0E9483114B01FA
:100E40005C01E894B7F8F80162A173A1072E000CC9
:100E5000880B990B0E9483119B01AC01C501B40161
:100E60000E94E2114B015C016A857B85072E000C14
:100E7000880B990B0E9483119B01AC01C501B40141
:100E80000E9461130E94D3134B01AA24AA94BA2C86
:100E90001E141F041CF4AA24A394B12CF801B58ECF
:100EA000A48E808D918D019769F461E070E0F1E08E
:100EB000AF16B10411F070E060E0F8018685978507
:100EC0000E947A0310E000E0F12CE12C22242A9405
:100ED000322CE814F9040CF0FAC08C85811149C059
:100EE0008C85811114C0888199810E946103892BAE
:100EF00009F0D6C0888199810E946103892B39F459
:100F00008C819D810E941303892B09F04DC00E94A2
:100F10009901E881F981358E248E808D918D01971C
:100F200031F470E060E0868597850E947A03198627
:100F300018868C819D810E941303892B09F4C2C0FD
:100F4000888199810E945304EE81FF8160817181C3
:100F5000828193810E94DA136230710550F3660F2B
:100F6000771F660F771F65507109CB010197F1F765
:100F7000E0CF888199810E946103892B79F488816F
:100F800099810E946103892B09F0AACF8C819D81F0
:100F90000E941303892B09F0A3CF06C08A819B818D
:100FA0000E941303892B59F7888199810E94530469
:100FB000CE80DF80B801012E000C880B990B0E94B7
:100FC0008311F60120893189428953890E94F412E4
:100FD000F60124853585468557850E94E2112B014F
:100FE0003C01F60164897589072E000C880B990B6A
:100FF0000E9483119B01AC01C301B2010E94E21166
:101000009B01AC0164E578EF8DE290E40E940E1440
:1010100020E030E040E85FE30E94F5129B01AC0164
:10102000F60160857185828593850E946113F601C2
:1010300024813581468157810E94F5120E94DA137E
:1010400062307105A8F5E881F9818A859B8562A1E6
:1010500073A10E9498156A9D90016B9D300D7A9D39
:10106000300D112488859985820F931F9987888771
:10107000FFEFEF1AFF0AE881F98120A131A1829EDA
:10108000C001839E900D929E900D112497FD0196B4
:10109000959587958E159F05BCF00F5F1F4F19CF53
:1010A0008A819B810E941303892B09F423CF7CCF73
:1010B000660F771F660F771F65507109CB01019787
:1010C000F1F7C1CF7401D4CF0150110902CFDF91E4
:1010D000CF911F910F91FF90EF90DF90CF90BF9035
:1010E000AF909F908F907F906F905F904F903F90C8
:1010F0002F9008958F929F92AF92BF92EF92FF929E
:101100000F931F93CF93DF93CDB7DEB76E970FB6D4
:10111000F894DEBF0FBECDBF8FE991E00E946E0252
:10112000181619060CF068C26EE271E0CE01019645
:101130000E944F060E94200297FD1EC08A30910532
:10114000D9F08F8318860D811E810F5F1F4FB80164
:10115000CE0101960E94FC05882361F329813A8122
:101160008D819E81BE01695F7F4F820F931F0E9418
:10117000DB171E830D83DECF80913C0290913D02F0
:10118000009709F451C069817A816115710509F4EC
:1011900049C040913E0250913F022D813E8142174D
:1011A000530708F43FC00E94DB178D819E81909306
:1011B0004102809340021E821D82CE0101960E9450
:1011C000D90540914002509141024115510509F461
:1011D00013C260913C0270913D02FB018081882323
:1011E00009F40AC21A8E198E1C8E1B8E1E8E1D8E3D
:1011F0006115710521F0CE0149960E942406098DE2
:101200001A8D0115110539F1F80181918F0188239B
:1012100011F1082E000C990B0E94CA17F8013197A2
:101220008083F2CF0E94841689819A8190933D0237
:1012300080933C028B819C8190933F0280933E027D
:101240008D819E8190934102809340021A8219827F
:101250001C821B82B0CF6FE271E0CE0101960E942A
:101260004F06BE016F5F7F4FCE0149960E94E10598
:101270008C01CE0101960E94D90517FDFDC065E3E2
:1012800071E0CE0143960E944F06BE016D5E7F4F16
:10129000CE0149960E94E1052D8D3E8DAC014F5F38
:1012A0005F4FBE01675E7F4FCE010D960E946006C4
:1012B00067E371E0CE0101960E944F06BE016F5FA9
:1012C0007F4FCE010D960E94E1058C01CE01019663
:1012D0000E94D9050F3F1F4F09F4C6C067E371E0B4
:1012E000CE0101960E944F06BE016F5F7F4FCE0177
:1012F0000D960E94E1059C0150E040E0BE01635F55
:101300007F4FCE0107960E9460068F8198850097D7
:1013100009F483C10E94CB0F0E94D313709357012D
:1013200060935601CE0107960E94D905CE01019621
:101330000E94D90567E371E0CE0101960E944F0635
:10134000BE016F5F7F4FCE010D960E94E105298996
:101350003A89AC014F5F5F4FBE01635F7F4FCE01A3
:1013600007960E9460068F819885009709F459C1FD
:101370000E94CB0F0E94D3138B0170935501609391
:101380005401CE0107960E94D905CE0101960E9414
:10139000D905E0905601F09057018BE0E816F10472
:1013A00008F062C00B30110508F05EC000915A01D0
:1013B00010915B01B7010F2C000C880B990B0E9458
:1013C00083114B015C01F80160857185072E000CCB
:1013D000880B990B0E9483119B01AC01C501B401DC
:1013E0000E947C11882379F0B701C8010E94F6069B
:1013F000F80160857185072E000C880B990B0E94FF
:1014000083110E940F05E0905401F0905501009166
:10141000580110915901B7010F2C000C880B990B42
:101420000E9483114B015C01F80160857185072ED4
:10143000000C880B990B0E9483119B01AC01C50124
:10144000B4010E947C11882379F0B701C8010E9481
:10145000F606F80160857185072E000C880B990B44
:101460000E9483110E940F05CE010D960E94D9059E
:10147000CE0143960E94D90569E371E0CE01019641
:101480000E944F06BE016F5F7F4FCE0149960E94BA
:10149000E1058C01CE0101960E94D90517FD08C017
:1014A00061E070E080919401909195010E947A032F
:1014B0006BE371E0CE0101960E944F06BE016F5FA3
:1014C0007F4FCE0149960E94E1058C01CE01019625
:1014D0000E94D90517FD08C070E060E0809194017A
:1014E000909195010E947A036DE371E0CE0101961F
:1014F0000E944F06BE016F5F7F4FCE0149960E944A
:10150000E1058C01CE0101960E94D90517FD2AC084
:1015100065E371E0CE0107960E944F06BE01695F48
:101520007F4FCE0149960E94E1052D8D3E8DAC0185
:101530004F5F5F4FBE01675E7F4FCE0101960E94F5
:101540006006BE016F5F7F4F80915A0190915B01F1
:101550000E94BF06CE0101960E94D905CE010796D2
:101560000E94D90568E471E0CE0101960E944F0601
:10157000BE016F5F7F4FCE0149960E94E1058C014D
:10158000CE0101960E94D90517FD2AC065E371E0DE
:10159000CE0107960E944F06BE01695F7F4FCE01C4
:1015A00049960E94E1052D8D3E8DAC014F5F5F4F46
:1015B000BE01675E7F4FCE0101960E946006BE01AC
:1015C0006F5F7F4F80915801909159010E94BF0633
:1015D000CE0101960E94D905CE0107960E94D90539
:1015E000CE0149960E94D90550E040E06EE271E0DC
:1015F0008CE392E00E9424066E960FB6F894DEBF4C
:101600000FBECDBFDF91CF911F910F91FF90EF9053
:10161000BF90AF909F908F90089560E070E0CB01F5
:101620007BCE60E070E0CB01A5CE0E947A028111F2
:101630000C947A0808951F920F920FB60F921124FE
:101640002F933F938F939F93AF93BF9380919B0171
:1016500090919C01A0919D01B0919E0130919601C5
:1016600023E0230F2D3758F50196A11DB11D2093BE
:10167000960180939B0190939C01A0939D01B09350
:101680009E018091970190919801A0919901B0914C
:101690009A010196A11DB11D809397019093980125
:1016A000A0939901B0939A01BF91AF919F918F91AF
:1016B0003F912F910F900FBE0F901F90189526E825
:1016C000230F0296A11DB11DD2CF1F920F920FB60C
:1016D0000F9211242F933F934F935F936F937F93B8
:1016E0008F939F93AF93BF93EF93FF938FE991E015
:1016F0000E948402FF91EF91BF91AF919F918F91D2
:101700007F916F915F914F913F912F910F900FBEFD
:101710000F901F9018951F920F920FB60F921124E1
:101720002F938F939F93EF93FF93E091AF01F091ED
:10173000B0018081E091B501F091B60182FD1BC03E
:1017400090818091B8018F5F8F732091B9018217CA
:1017500041F0E091B801F0E0E156FE4F958F8093A3
:10176000B801FF91EF919F918F912F910F900FBE34
:101770000F901F9018958081F4CFEFE9F1E013826C
:10178000128288EE93E0A0E0B0E084839583A68384
:10179000B78382E191E09183808385EC90E0958727
:1017A000848784EC90E09787868780EC90E0918B2B
:1017B000808B81EC90E0938B828B82EC90E0958B18
:1017C000848B86EC90E0978B868B118E128E138E15
:1017D000148E6EE271E08CE392E00C944F06CF938E
:1017E000DF93CDB7DEB7A8970FB6F894DEBF0FBE74
:1017F000CDBF789484B5826084BD84B5816084BD9A
:1018000085B5826085BD85B5816085BD80916E009E
:10181000816080936E0010928100809181008260CF
:10182000809381008091810081608093810080910C
:1018300080008160809380008091B10084608093FB
:10184000B1008091B00081608093B00080917A00F7
:10185000846080937A0080917A00826080937A001D
:1018600080917A00816080937A0080917A0080680C
:1018700080937A001092C100E091AF01F091B00125
:1018800082E08083E091AB01F091AC011082E091A5
:10189000AD01F091AE018FEC80831092B701E09121
:1018A000B301F091B40186E08083E091B101F09141
:1018B000B201808180618083E091B101F091B20139
:1018C000808188608083E091B101F091B2018081D4
:1018D00080688083E091B101F091B20180818F7DB9
:1018E000808386E090E00E94E8159A83898330E047
:1018F00020E041E06DE00E94E00389819A819093AD
:1019000095018093940186E090E00E94E8159A8307
:10191000898330E020E041E06EE10E94E003A9818C
:10192000BA81B0939301A093920186E090E00E9467
:10193000E8159C838B8330E020E041E068E20E9460
:10194000E003EB81FC81F0939101E093900186E04C
:1019500090E00E94E8159E838D8330E020E041E016
:1019600062E30E94E0038D819E8190938F018093BA
:101970008E0186E090E00E94E81598878F8330E022
:1019800020E041E06CE30E94E003AF81B885B093B2
:101990008D01A0938C0186E090E00E94E8159A8763
:1019A000898730E020E041E066E40E94E003E985B9
:1019B000FA85F0938B01E0938A0186E090E00E9423
:1019C000E8159C878B8730E020E041E060E50E94CD
:1019D000E0038B859C85909389018093880186E044
:1019E00090E00E94E8159E878D8721E030E040E07E
:1019F00063E00E94E003AD85BE85B0938701A093AC
:101A0000860186E090E00E94E815988B8F8721E0A0
:101A100030E040E064E00E94E003EF85F889F09355
:101A20008501E093840186E190E00E94E8153C0185
:101A300022242394312CD30155963C922E92549714
:101A400080E090E0A6E1B4E4F30180839183A28377
:101A5000B383812C912C98ECA92E92E4B92E848228
:101A60009582A682B78280E090E0AAEFB3E48087F7
:101A70009187A287B3878DEC9CECACECBDE38487A7
:101A80009587A687B7872BE8C22E2EEBD22E22EEA3
:101A9000E22E22E4F22EC08AD18AE28AF38A709280
:101AA00083016092820186E090E00E94E8159A8BA3
:101AB000898B30E020E041E06FE00E94E003E9899B
:101AC000FA89F0938101E093800186E090E00E9422
:101AD000E8159C8B8B8B30E020E041E060E10E94B8
:101AE000E0038B899C8990937F0180937E0186E03F
:101AF00090E00E94E8159E8B8D8B30E020E041E065
:101B000061E10E94E003AD89BE89B0937D01A0939D
:101B10007C0186E090E00E94E815988F8F8B30E082
:101B200020E041E062E10E94E003EF89F88DF0934C
:101B30007B01E0937A0186E090E00E94E8159A8F9D
:101B4000898F30E020E041E063E10E94E003898D6D
:101B50009A8D909379018093780186E090E00E94BD
:101B6000E8159C8F8B8F30E020E041E064E10E941B
:101B7000E003AB8DBC8DB0937701A093760186E036
:101B800090E00E94E8159E8F8D8F21E030E040E0CC
:101B900068E00E94E003ED8DFE8DF0937501E09307
:101BA000740186E090E00E94E81598A38F8F21E0F1
:101BB00030E040E069E00E94E0038F8D98A19093AF
:101BC00073018093720186E190E00E94E8152C0178
:101BD000DC0155963C922E92549780E090E0A6E16D
:101BE000B4E4F20180839183A283B38384829582DB
:101BF000A682B78280E090E0AAEFB3E48087918765
:101C0000A287B3878DEC9CECACECBDE38487958711
:101C1000A687B787C08AD18AE28AF38A5092710177
:101C20004092700186E090E00E94E8159AA389A393
:101C300030E020E041E060E00E94E003E9A1FAA189
:101C4000F0936B01E0936A0186E090E00E94E81552
:101C50009CA38BA330E020E041E060E00E94E00321
:101C60008BA19CA1909369018093680186E090E02C
:101C70000E94E8155C0130E020E041E060E00E9455
:101C8000E003B0926701A092660186E090E00E94B6
:101C9000E81598A78FA330E020E041E060E00E94C3
:101CA000E003AFA1B8A5B0936501A093640186E0FD
:101CB00090E00E94E8159EA38DA330E020E041E073
:101CC00060E00E94E003EDA1FEA1F0936301E093C8
:101CD000620186E090E00E94E8154C0130E020E0CF
:101CE00041E060E00E94E003909261018092600117
:101CF00086E090E00E94E8156C0130E020E041E0D1
:101D000060E00E94E003D0925F01C0925E0186E035
:101D100090E00E94E8157C0130E020E041E060E0C6
:101D20000E94E003F0925D01E0925C0186E290E0A7
:101D30000E94E8158C01DC0159961C921E9258975E
:101D40005B961C921E925A975D963C922E925C97DF
:101D50005F961C921E925E9791963C922E9290975F
:101D6000E8ECF0E09396FC93EE93929740E061E00C
:101D700070E00E948D04D8015B961C921E925A97C7
:101D8000E981FA811196FC93EE938B819C811396E5
:101D90009C938E931297ED81FE811596FC93EE93A2
:101DA00014978F81988517969C938E931697E98543
:101DB000FA851996FC93EE9318978B859C851B9654
:101DC0009C938E931A97E9A1FAA15196FC93EE93F6
:101DD00050978BA19CA153969C938E9352975596A6
:101DE000BC92AE925497EFA1F8A55796FC93EE9350
:101DF00056975D963C922E925C9730E0A32E31E090
:101E0000B32E9596BC92AE92949759961C921E92C0
:101E1000589710936F0100936E0186E290E00E9444
:101E2000E8159A838983DC0159961C921E92589773
:101E30005B961C921E925A975D963C922E925C97EE
:101E40005F961C921E925E9791963C922E9290976E
:101E5000E8ECF0E09396FC93EE93929740E061E01B
:101E600070E00E948D04A981BA815B961C921E923B
:101E70005A97E989FA891196FC93EE938B899C898C
:101E800013969C938E931297ED89FE891596FC9379
:101E9000EE9314978F89988D17969C938E9316972F
:101EA000E98DFA8D1996FC93EE9318978B8D9C8D86
:101EB0001B969C938E931A97EDA1FEA15196FC93CD
:101EC000EE93509753969C928E9252975596DC9231
:101ED000CE9254975796FC92EE9256975D963C920E
:101EE0002E925C979596BC92AE92949759961C92BE
:101EF0001E925897B0936D01A0936C0181E190E020
:101F00000E94E815FC011186108615861686178634
:101F1000108A1183008300E41FE11387028714866F
:101F20008D859E8593838283AF85B889B583A4838D
:101F300077826682F0935B01E0935A0181E190E041
:101F40000E94E815FC0111861086158616861786F4
:101F5000108A89819A8191838083138702871486EE
:101F6000AD8DBE8DB383A2838F8D98A1958384831D
:101F700057824682F0935901E09358010E949901DB
:101F80000E947A028823E1F30E947A08F9CF8CE359
:101F900092E00C94D905662777270C940B101F93B9
:101FA000FC0199278827BC01E89411911032E9F3CC
:101FB000193010F01E30C8F31B3251F01D3249F4B5
:101FC000689406C00E94F60F610F711D811D911D5E
:101FD000119110531A30B0F33EF49095809570959E
:101FE00061957F4F8F4F9F4F1F910895592F482F15
:101FF000372F262F660F771F881F991F660F771FB1
:10200000881F991F620F731F841F951F660F771F0C
:10201000881F991F0895B0E0A0E0E1E1F0E10C9481
:10202000B4125C017B016115710519F0DB018D9320
:102030009C9385010F5F1F4FF501D0818D2F90E09C
:102040000E945B116C01892BB9F5DD32B9F50F5F88
:102050001F4FD5011196DC91C1E05801F1E0AF1A94
:10206000B10843E050E062EF70E0C5010E946411E6
:10207000892B69F5680182E0C80ED11C45E050E06B
:102080006DEE70E0C6010E946411892B21F4680195
:1020900097E0C90ED11CE114F10419F0D701CD92DB
:1020A000DC9260E070E080E89FEFC111FFC060E06B
:1020B00070E080E89FE7FAC05801BBCFDB3229F41B
:1020C00085010E5F1F4FF501D181C0E0C6CF43E00F
:1020D00050E06AEE70E0C5010E946411892BE9F0BE
:1020E000F80110E000E020E030E0A9015F01B0ED70
:1020F0008B2E8D0E89E08815C8F19C2E689491F87E
:102100008C2F8870C2FF16C0811102C00F5F1F4F55
:102110003196D501DC91C92DE9CFE114F10429F004
:102120000E5F1F4FF7011183008360E070E080ECC9
:102130009FE7BCC0882311F001501109A5E0B0E071
:102140000E94A3129B01AC01220F331F441F551F95
:10215000280D311D411D511D283999E939074907BD
:1021600099E15907A8F2C6609C2ED2CFAEEF8A1231
:1021700006C0C3FD3CC09C2E689493F8C9CFDF7D98
:10218000D534A9F580818D3239F4C061DF01129612
:10219000818162E070E006C0DF018B32C1F31196ED
:1021A00061E070E080535D01A61AB70A8A30F8F446
:1021B000E0E8CE16ECE0DE065CF4B601660F771FB1
:1021C000660F771FC60ED71ECC0CDD1CC80ED11CA7
:1021D0005D01FFEFAF1ABF0A8C9180538A30A8F1DE
:1021E000C4FF03C0D194C194D1080C0D1D1DC1FFC3
:1021F00009C0E114F10431F081E0A81AB108D70157
:10220000AD92BC92CA01B9010E948111C370C33062
:1022100009F490584B015C0120E030E0A9010E94D4
:102220007C11882309F440C0C1E2D1E017FF05C04A
:10223000119501951109C9E0D1E06E01B8E1CB1A01
:10224000D10880E2E82EF12C0FC0D501B1CFFE01FC
:1022500025913591459154910E191F09C501B4017D
:102260000E94E2114B015C01D501C4010E151F054E
:1022700074F72497F594E794CC16DD06A9F78A2F16
:10228000880F8B2F881F8F3F49F020E030E0A90195
:10229000C501B4010E947C11811106C082E290E068
:1022A0009093430280934202C501B401CDB7DEB7DB
:1022B000ECE00C94D01291110C944F12803219F072
:1022C00089508550C8F70895FB01DC01415050400A
:1022D00088F08D9181341CF08B350CF4805E659113
:1022E00061341CF06B350CF4605E861B611171F378
:1022F000990B0895881BFCCF0E94BE1108F481E061
:102300000895E89409C097FB3EF4909580957095E8
:1023100061957F4F8F4F9F4F9923A9F0F92F96E931
:10232000BB279395F695879577956795B795F111A6
:10233000F8CFFAF4BB0F11F460FF1BC06F5F7F4F43
:102340008F4F9F4F16C0882311F096E911C0772355
:1023500021F09EE8872F762F05C0662371F096E85E
:10236000862F70E060E02AF09A95660F771F881F2D
:10237000DAF7880F9695879597F90895990F0008D1
:10238000550FAA0BE0E8FEEF16161706E807F90747
:10239000C0F012161306E407F50798F0621B730BE2
:1023A000840B950B39F40A2661F0232B242B252B63
:1023B00021F408950A2609F4A140A6958FEF811D06
:1023C000811D08950E94F5110C9469120E945B1200
:1023D00038F00E94621220F0952311F00C945212F2
:1023E0000C94581211240C949D120E947A1270F3CE
:1023F000959FC1F3950F50E0551F629FF001729FAA
:10240000BB27F00DB11D639FAA27F00DB11DAA1FB8
:10241000649F6627B00DA11D661F829F2227B00D05
:10242000A11D621F739FB00DA11D621F839FA00D90
:10243000611D221F749F3327A00D611D231F849FE0
:10244000600D211D822F762F6A2F11249F57504037
:102450009AF0F1F088234AF0EE0FFF1FBB1F661FB2
:10246000771F881F91505040A9F79E3F510580F07B
:102470000C9452120C949D125F3FE4F3983ED4F3F7
:10248000869577956795B795F795E7959F5FC1F71F
:10249000FE2B880F911D9695879597F9089599279A
:1024A0008827089597F99F6780E870E060E00895B5
:1024B0009FEF80EC089500240A941616170618065C
:1024C0000906089500240A94121613061406050638
:1024D0000895092E0394000C11F4882352F0BB0FC9
:1024E00040F4BF2B11F460FF04C06F5F7F4F8F4F2C
:1024F0009F4F089557FD9058440F551F59F05F3F67
:1025000071F04795880F97FB991F61F09F3F79F015
:1025100087950895121613061406551FF2CF469597
:10252000F1DF08C0161617061806991FF1CF869519
:102530007105610508940895E894BB2766277727FD
:10254000CB0197F908950E94E512A59F900DB49FC5
:10255000900DA49F800D911D112408952F923F92FC
:102560004F925F926F927F928F929F92AF92BF92A3
:10257000CF92DF92EF92FF920F931F93CF93DF934F
:10258000CDB7DEB7CA1BDB0B0FB6F894DEBF0FBEAC
:10259000CDBF09942A88398848885F846E847D84F9
:1025A0008C849B84AA84B984C884DF80EE80FD80FB
:1025B0000C811B81AA81B981CE0FD11D0FB6F89471
:1025C000DEBF0FBECDBFED010895A29FB001B39F46
:1025D000C001A39F700D811D1124911DB29F700D2C
:1025E000811D1124911D08955058BB27AA270E94D0
:1025F0000C130C9469120E945B1238F00E94621254
:1026000020F039F49F3F19F426F40C9458120EF47C
:10261000E095E7FB0C945212E92F0E947A1258F3CE
:10262000BA17620773078407950720F079F4A6F5B7
:102630000C949C120EF4E0950B2EBA2FA02D0B01DA
:10264000B90190010C01CA01A0011124FF27591BF7
:1026500099F0593F50F4503E68F11A16F040A22FFD
:10266000232F342F4427585FF3CF4695379527956E
:10267000A795F0405395C9F77EF41F16BA0B620B6D
:10268000730B840BBAF09150A1F0FF0FBB1F661FB4
:10269000771F881FC2F70EC0BA0F621F731F841FF7
:1026A00048F4879577956795B795F7959E3F08F01D
:1026B000B0CF9395880F08F09927EE0F97958795DF
:1026C00008950E9475130C9469120E94621258F0CA
:1026D0000E945B1240F029F45F3F29F00C945212E3
:1026E00051110C949D120C9458120E947A1268F3A6
:1026F0009923B1F3552391F3951B550BBB27AA27BB
:1027000062177307840738F09F5F5F4F220F331FF4
:10271000441FAA1FA9F335D00E2E3AF0E0E832D0BC
:1027200091505040E695001CCAF72BD0FE2F29D0BF
:10273000660F771F881FBB1F261737074807AB0791
:10274000B0E809F0BB0B802DBF01FF2793585F4F06
:102750003AF09E3F510578F00C9452120C949D1261
:102760005F3FE4F3983ED4F3869577956795B795E8
:10277000F7959F5FC9F7880F911D9695879597F9F3
:102780000895E1E0660F771F881FBB1F621773076C
:102790008407BA0720F0621B730B840BBA0BEE1F81
:1027A00088F7E09508950E94DA136894B1110C94AB
:1027B0009D1208950E94821288F09F5798F0B92FB9
:1027C0009927B751B0F0E1F0660F771F881F991F66
:1027D0001AF0BA95C9F714C0B13091F00E949C125A
:1027E000B1E008950C949C12672F782F8827B85F6A
:1027F00039F0B93FCCF3869577956795B395D9F7BE
:102800003EF490958095709561957F4F8F4F9F4FC7
:1028100008950E94BE1108F48FEF0895FA01EE0F9B
:10282000FF1F309621053105A1F16115710561F495
:102830008038BFE39B0749F168949038810561F0C7
:102840008038BFEF9B0741F099234AF5FF3FE10530
:102850003105210519F1E8940894E795D901AA23D7
:1028600029F4AB2FBE2FF85FD0F310C0FF5F70F4D8
:10287000A695E0F7F73950F019F0FF3A38F49F7752
:102880009F930DD00F9007FC9058089546F00C943C
:10289000581260E070E080E89FE308954FE79F776B
:1028A0005F934F933F932F930E940E152F913F916B
:1028B0004F915F910E94E2110C946B140E94BE1123
:1028C000880B990B089529F416F00C9452120C946D
:1028D0009C120C9458120E948212A8F39638A0F70A
:1028E00007F80F92E8942BE33AEA48EB5FE70E947F
:1028F000F8110F920F920F924DB75EB70F920E9490
:102900005615E8E6F0E00E949D144F915F91EF911B
:10291000FF91E595EE1FFF1F49F0FE57E068442741
:10292000EE0F441FFA95E1F74195550B0E94D01424
:102930000F9007FE0C94C4140895DF93CF931F9358
:102940000F93FF92EF92DF927B018C01689406C097
:10295000DA2EEF010E94F511FE01E894A591259170
:10296000359145915591A6F3EF010E940C13FE019C
:102970009701A801DA9469F7DF90EF90FF900F912B
:102980001F91CF91DF9108959B01AC0160E070E051
:1029900080E89FE30C9461130C9452120C948A15F6
:1029A0000E948212D8F39923C9F3940F511DA3F307
:1029B0009150504094F059F0882332F0660F771F01
:1029C000881F91505040C1F79E3F51052CF7880F4A
:1029D000911D9695879597F908955F3FACF0983EC5
:1029E0009CF0BB27869577956795B79508F4B160FD
:1029F0009395C1F7BB0F58F711F460FFE8CF6F5FF5
:102A00007F4F8F4F9F4FE3CF0C949D1216F00C9485
:102A10008A150C94581268940C9452120E948212D7
:102A2000A8F39923C1F3AEF3DF93CF931F930F93D2
:102A3000FF92C92FDD2788232AF02197660F771F81
:102A4000881FDAF720E030E040E85FEB9FE3883949
:102A500020F0803E38F021968F770E94F512E0E951
:102A6000F0E004C00E94F512EDEBF0E00E949D142E
:102A70008B01BE01EC01FB2E6F5771097595771F15
:102A8000880B990B0E94831128E132E741E35FE351
:102A90000E94F511AF2D9801AE01FF900F911F918B
:102AA000CF91DF910E940C130C946912FA01DC01A2
:102AB000AA0FBB1F9B01AC01BF5728F42227332765
:102AC0004427507820C0B75190F4AB2F002446958E
:102AD00037952795011CA395D2F3002071F0220FA2
:102AE000331F441FB395DAF30ED00C94F412613007
:102AF0007105A0E88A07B94630F49B01AC0166274E
:102B0000772788279078309621F02083318342837D
:102B1000538308959F3F31F0915020F48795779526
:102B20006795B795880F911D9695879597F90895A4
:102B300097FB072E16F4009407D077FD09D00E946A
:102B4000CE1507FC05D03EF4909581959F4F0895D2
:102B5000709561957F4F0895A1E21A2EAA1BBB1BA9
:102B6000FD010DC0AA1FBB1FEE1FFF1FA217B30759
:102B7000E407F50720F0A21BB30BE40BF50B661F6F
:102B8000771F881F991F1A9469F760957095809533
:102B900090959B01AC01BD01CF010895AA1BBB1B01
:102BA00051E107C0AA1FBB1FA617B70710F0A61B4D
:102BB000B70B881F991F5A95A9F780959095BC016E
:102BC000CD010895EE0FFF1F0590F491E02D0994BB
:102BD0000F931F93CF93DF938230910510F482E01F
:102BE00090E0E0914602F091470230E020E0B0E052
:102BF000A0E0309799F42115310509F44AC0281B4B
:102C0000390B24303105D8F58A819B816115710516
:102C100089F1FB0193838283FE0111C040815181C0
:102C20000281138148175907E0F04817590799F4B2
:102C3000109761F012960C93129713961C9332968C
:102C4000CF01DF91CF911F910F910895009346021C
:102C500010934702F4CF2115310551F04217530765
:102C600038F0A901DB019A01BD01DF01F801C1CFF4
:102C7000EF01F9CF9093470280934602CDCFFE013A
:102C8000E20FF31F819391932250310939832883F6
:102C9000D7CF2091440230914502232B41F420915B
:102CA0000A0130910B013093450220934402209198
:102CB0000801309109012115310541F42DB73EB7C6
:102CC00040910C0150910D01241B350BE091440201
:102CD000F0914502E217F307A0F42E1B3F0B2817D3
:102CE000390778F0AC014E5F5F4F2417350748F085
:102CF0004E0F5F1F5093450240934402819391937E
:102D00009FCFF0E0E0E09CCFCF93DF930097E9F016
:102D1000FC01329713821282A0914602B0914702C1
:102D2000ED0130E020E01097A1F420813181820F85
:102D3000931F20914402309145022817390709F06A
:102D400061C0F0934502E0934402DF91CF91089572
:102D5000EA01CE17DF07E8F54A815B819E01411544
:102D60005105B1F7E901FB83EA8349915991C40FF9
:102D7000D51FEC17FD0761F4808191810296840FC5
:102D8000951FE90199838883828193819B838A833C
:102D9000F0E0E0E012968D919C9113970097B9F5C1
:102DA0002D913C911197CD010296820F931F209196
:102DB0004402309145022817390739F6309751F50A
:102DC0001092470210924602B0934502A09344022B
:102DD000BCCFD383C28340815181840F951FC81714
:102DE000D90761F44E5F5F4F88819981480F591F61
:102DF000518340838A819B8193838283211531058E
:102E000009F0B0CFF0934702E09346029ECFFD0158
:102E1000DC01C0CF13821282D7CFB0E0A0E0E3E1A3
:102E2000F7E10C94B0128C01009751F4CB010E9491
:102E3000E8158C01C801CDB7DEB7E0E10C94CC12E7
:102E4000FC01E60FF71F9C0122503109E217F3073E
:102E500008F49DC0D901CD91DC911197C617D70711
:102E600098F0C530D10530F3CE0104978617970747
:102E700008F3C61BD70B2297C193D1936D937C9314
:102E8000CF010E948416D6CF5B01AC1ABD0A4C015B
:102E90008C0E9D1EA0914602B0914702512C412CF0
:102EA000F12CE12C109731F580914402909145026C
:102EB0008815990509F05CC04616570608F058C0F9
:102EC0008091080190910901009741F48DB79EB758
:102ED00040910C0150910D01841B950BE817F907E7
:102EE00008F055C0F0934502E0934402F901718364
:102EF0006083A0CF8D919C91119712966C90129740
:102F000013967C901397A815B90559F56C0142E00A
:102F1000C40ED11CCA14DB0420F1AC014A195B09B0
:102F2000DA011296159780F0628273825183408392
:102F3000D9016D937C93E114F10471F0D7011396DC
:102F4000FC93EE93129776CF22968C0F9D1FF9017A
:102F500091838083F301EFCFF0934702E093460221
:102F600069CF4816590608F42C017D01D3019ACF88
:102F7000CB010E94E8157C01009749F0AE01B80131
:102F80000E94D217C8010E948416870153CF10E017
:102F900000E050CF9111089581568A5108F4805273
:102FA00085580895FB01DC0102C001900D9241504B
:102FB0005040D8F70895FB01DC0101900D920020EC
:102FC000E1F70895FB0151915523A9F0BF01DC0100
:102FD0004D9145174111E1F759F4CD0101900020C1
:102FE00049F04D9140154111C9F3FB014111EFCF5B
:102FF00081E090E00197089510E0C1ECD0E004C0BA
:10300000FE010E94E2152196C23CD107C9F7F8944F
:02301000FFCFF0
:103012000901030206040C080000480280000000B7
:103022000000A602D001FD01F3026E020C02600252
:103032006E616E00696E66006F7666000D0A004D65
:103042004F5645520020002C004C0044004D4F4486
:103052004F504153534F58004D4F444F50415353DB
:043062004F590000C2
:00000001FF
