:100000000C9421010C9449010C9449010C94490170
:100010000C9449010C9449010C9449010C94490138
:100020000C9449010C9449010C9449010C94490128
:100030000C9449010C9449010C9449010C94490118
:100040000C941C0B0C9449010C948C0B0C94660BB7
:100050000C9449010C9449010C9449010C944901F8
:100060000C9449010C94490107634236B79BD8A709
:100070001A39685618AEBAAB558C1D3CB7CC5763CD
:10008000BD6DEDFD753EF6177231BF000000803F7B
:1000900008000000BE922449123EABAAAA2ABECD97
:1000A000CCCC4C3E00000080BEABAAAAAA3E000009
:1000B0000000BF000000803F000000000008417801
:1000C000D3BB4387D1133D190E3CC3BD4282AD2B38
:1000D0003E68EC8276BED98FE1A93E4C80EFFFBE30
:1000E00001C4FF7F3F000000000000407A10F35A77
:1000F00000A0724E18090010A5D4E80000E8764868
:10010000170000E40B54020000CA9A3B000000E113
:10011000F505000080969800000040420F000000A6
:10012000A08601000000102700000000E803000086
:1001300000006400000000000A0000000000010050
:10014000000000002C76D888DC674F0823DFC1DF71
:10015000AE59E1B1B796E5E3E453C63AE651997674
:1001600096E8E6C28426EB898C9B62ED407C6FFCAE
:10017000EFBC9C9F40F2BAA56FA5F490055A2AF7F0
:100180005C936B6CF9676DC11BFCE0E40D47FEF5F9
:1001900020E6B500D0ED902E030094357705008061
:1001A000841E080000204E0A000000C80C333333C0
:1001B000330F986E12831141EF8D2114893BE65560
:1001C00016CFFEE6DB18D1844B381BF77C1D901D43
:1001D000A4BBE424203284725E228100C9F124ECA5
:1001E000A1E53D27000000002300260029000000B3
:1001F0000000240027002A0000000000250028003D
:100200002B00040404040404040402020202020297
:1002100003030303030301020408102040800102CA
:100220000408102001020408102000000008000249
:100230000100000304070000000000000000BE0BE6
:100240007F0F11241FBECFEFD8E0DEBFCDBF22E06D
:10025000AAE5B1E001C01D92AA34B207E1F711E0AE
:10026000A0E0B1E0E8E0F1E302C005900D92AA350C
:10027000B107D9F711E0C0E2D1E004C02197FE0137
:100280000E945D16CF31D107C9F70E94F00B0C9484
:1002900077180C940000833081F028F4813099F0B5
:1002A0008230A9F008958730A9F08830C9F08430F1
:1002B000B1F4809180008F7D03C0809180008F77A2
:1002C00080938000089584B58F7784BD089584B5A8
:1002D0008F7DFBCF8091B0008F778093B000089521
:1002E0008091B0008F7DF9CF1F93CF93DF93282F9C
:1002F00030E0F901E65DFD4F8491F901EA5EFD4FC2
:10030000D491F901EE5FFD4FC491CC23A9F0162FD3
:1003100081110E944B01EC2FF0E0EE0FFF1FE8501F
:10032000FE4FA591B4918FB7F894EC91111108C0CC
:10033000D095DE23DC938FBFDF91CF911F9108957D
:10034000DE2BF8CFCF93DF9390E0FC01EA5EFD4F08
:1003500024918E5F9D4FFC0184918823D1F090E021
:10036000880F991FFC01E251FE4FA591B491FC0149
:10037000E850FE4FC591D49161110EC09FB7F8941B
:100380008C91E22FE0958E238C932881E223E883E1
:100390009FBFDF91CF9108958FB7F894EC91E22B36
:1003A000EC938FBFF6CF3FB7F89480919B0190916B
:1003B0009C01A0919D01B0919E0126B5A89B05C00E
:1003C0002F3F19F00196A11DB11D3FBFBA2FA92FD4
:1003D000982F8827BC01CD01620F711D811D911DD1
:1003E00042E0660F771F881F991F4A95D1F708953D
:1003F0000895AF92BF92CF92DF92EF92FF920F9348
:100400001F93CF93DF936C017B018B01040F151FAA
:10041000EB015E01AE18BF08C017D10759F0699112
:10042000D601ED91FC910190F081E02DC601099576
:10043000892B79F7C501DF91CF911F910F91FF9023
:10044000EF90DF90CF90BF90AF900895FC01538D57
:10045000448D252F30E0842F90E0821B930B54179E
:1004600010F0CF96089501970895FC01918D828D2B
:10047000981761F0A28DAE0FBF2FB11D5D968C91C4
:10048000928D9F5F9F73928F90E008958FEF9FEF03
:1004900008952FB7F89480919F019091A001A091A9
:1004A000A101B091A2012FBF8093AB019093AC0149
:1004B000A093AD01B093AE0183EA91E00E943502B2
:1004C00097FF26C02FB7F89480919F019091A001CB
:1004D000A091A101B091A2012FBF4091AB01509119
:1004E000AC016091AD017091AE01841B950BA60B20
:1004F000B70B4091A7015091A8016091A90170919B
:10050000AA0184179507A607B707B0F28FEF9FEFF0
:100510000895FC01918D828D981731F0828DE80F3E
:10052000F11D858D90E008958FEF9FEF0895FC01F8
:10053000918D228D892F90E0805C9F4F821B9109C5
:100540008F739927089583EA91E00E94970221E032
:10055000892B09F420E0822F0895FC01A48DA80FB7
:10056000B92FB11DA35ABF4F2C91848D90E00196F5
:100570008F739927848FA689B7892C93A089B18915
:100580008C91837080648C93938D848D981306C0B6
:100590000288F389E02D80818F7D80830895EF921A
:1005A000FF920F931F93CF93DF93EC0181E0888F2D
:1005B0009B8D8C8D98131AC0E889F989808185FFFD
:1005C00015C09FB7F894EE89FF896083E889F9899F
:1005D00080818370806480839FBF81E090E0DF91A1
:1005E000CF911F910F91FF90EF900895F62E0B8DF4
:1005F00010E00F5F1F4F0F731127E02E8C8D8E11AF
:100600000CC00FB607FCFACFE889F989808185FF15
:10061000F5CFCE010E94AD02F1CFEB8DEC0FFD2F97
:10062000F11DE35AFF4FF0829FB7F8940B8FEA89D0
:10063000FB8980818062CFCFCF93DF93EC01888DDF
:100640008823B9F0AA89BB89E889F9898C9185FD4D
:1006500003C0808186FD0DC00FB607FCF7CF8C91DB
:1006600085FFF2CF808185FFEDCFCE010E94AD02E4
:10067000E9CFDF91CF9108950F931F93CF93DF932D
:10068000EC012A8188819981019749F530E0F901CF
:10069000E65DFD4F8491F901EA5EFD4F0491F90199
:1006A000EE5FFD4F1491112391F181110E944B01D6
:1006B000E12FF0E0EE0FFF1FEC51FE4FA591B4913A
:1006C000EC910E2331E020E009F430E0832F922FEB
:1006D0009D838C83DF91CF911F910F9108952E30D0
:1006E00008F02E502770206420937C0080917A00BF
:1006F000806480937A0080917A0086FDFCCF90918F
:10070000780080917900892798278927E1CF90E0A8
:1007100080E0DECFCF93DF93EC018E859F850E9432
:100720003C0321E030E0892B11F430E020E03D8FE4
:100730002C8FC901DF91CF9108951F93CF93DF9341
:10074000FC0175836483128180819181019731F46A
:10075000812FDF91CF911F910C947401EB0161E027
:10076000812F0E94A201209711F460E0F1CFCF3FCA
:10077000D10511F461E0ECCFE12FF0E0E65DFD4F33
:10078000E491E33031F140F4E130B1F0E230E1F0F6
:10079000C038D1057CF7E9CFE73029F1E83059F1CD
:1007A000E430B1F780918000806280938000D09324
:1007B0008B00C0938A0004C084B5806884BDC7BD27
:1007C000DF91CF911F91089584B5806284BDC8BD2B
:1007D000F7CF80918000806880938000D09389005B
:1007E000C0938800EDCF8091B00080688093B00006
:1007F000C093B300E5CF8091B00080628093B000D9
:10080000C093B400DDCF0F931F93CF93DF93EC0120
:10081000862F890121E030E0398328836A834B8366
:10082000642F0E94A201B801CE01DF91CF911F91E8
:100830000F910C949D03AF92BF92CF92DF92EF92F3
:10084000FF920F931F93CF93DF93EC015B016A013B
:100850007901ECA1FDA18E8D9F8DE80FF91F6081BC
:10086000062F617070E0888999890E949D0301FBC1
:10087000662760F970E08A899B890E949D0302FBCC
:10088000662760F970E08C899D890E949D0303FBB7
:10089000662760F970E08E899F890E949D038C8D88
:1008A0009D8D6E8D7F8D0197C9F46A0D7B1D6E1530
:1008B0007F05BCF47F8F6E8F8E8D9F8D8C159D056F
:1008C00014F4FF8EEE8EDF91CF911F910F91FF9068
:1008D000EF90DF90CF90BF90AF9008956A197B0999
:1008E000E6CFDF8ECE8EE8CFEF92FF921F93CF93AD
:1008F000DF93EC01142F79A368A328EC269FC00195
:10090000279F900D11249BA38AA3E42EF12CB701FD
:1009100075956795759567958E819F810E949D035A
:1009200011FB662760F970E0888599850E949D0318
:10093000612F617070E08A859B850E949D0381E034
:1009400090E09F8F8E8FDF91CF911F91FF90EF905E
:100950000895FC0101900020E9F73197AF01481B91
:10096000590BBC0183EA91E00C94F9018F929F929C
:10097000AF92BF920F931F93CF93DF93CDB7DEB7A4
:10098000A1970FB6F894DEBF0FBECDBF19A24230BB
:1009900008F44AE08E010F5D1F4F842E912CB12C7C
:1009A000A12CA50194010E942716E62FB901CA01C6
:1009B000EA30F4F4E05DD801EE938D01232B242B73
:1009C000252B79F790E080E0109719F0CD010E9477
:1009D000A904A1960FB6F894DEBF0FBECDBFDF917C
:1009E000CF911F910F91BF90AF909F908F900895DE
:1009F000E95CE1CFCF93DF93DC0114962D913C911C
:100A00001597232B79F0FB01CD91DC9160817181E9
:100A1000CE010E945D18009729F08C1B9D0BDF9181
:100A2000CF9108958FEF9FEFFACF0F931F93CF933E
:100A3000DF93EC0188819981009759F02A813B81ED
:100A40002617370730F081E0DF91CF911F910F918A
:100A500008958B016F5F7F4F0E948817009759F0B0
:100A6000998388831B830A832C813D81232B59F72B
:100A7000FC011082E8CF80E0E7CFCF93DF93EC0159
:100A800088819981009711F00E94FF1619821882BF
:100A90001D821C821B821A82DF91CF910895EF92F2
:100AA000FF920F931F93CF93DF93EC017B018A0199
:100AB000BA010E94150581110BC0CE010E943D05AF
:100AC000CE01DF91CF911F910F91FF90EF9008958C
:100AD0001D830C83B701888199810E945618F0CF3D
:100AE000FB0101900020E9F73197AF01461B570B3E
:100AF0000C944F05FC011182108213821282158220
:100B00001482FB0101900020E9F73197AF01461BE9
:100B1000570B0C944F05AF92BF92CF92DF92EF929A
:100B2000FF920F931F93CF93DF936C015B017A01C8
:100B300089012417350720F48F2D7901042F182FF0
:100B400068E371E0C6010E947A05D5011496CD9143
:100B5000DC91EC16FD06E0F40C171D0708F4E80123
:100B6000D501ED91FC911197EC0FFD1F10811082C2
:100B70006D917C916E0D7F1DC60161157105A1F00F
:100B80000E947005F50180819181C80FD91F1883DB
:100B9000C601DF91CF911F910F91FF90EF90DF90F1
:100BA000CF90BF90AF9008950E943D05EBCFFC0120
:100BB00080819181009711F00C94FF160895CF93D6
:100BC000DF93EC01FB0180819181009791F00E94FD
:100BD000A10F643071058105910571F16CF46130EC
:100BE000710581059105D9F0623071058105910586
:100BF000F9F0DF91CF91089560317105810591057C
:100C0000F9F06032710581059105F1F068307105E8
:100C10008105910571F746E068E070E003C040E0AF
:100C200061E070E088819981DF91CF910C94740428
:100C300044E062E070E0F6CF42E064E070E0F2CFC2
:100C400041E060E170E0EECF47E060E270E0EACFC3
:100C5000CF92DF92EF92FF92CF93DF93EC01072EBA
:100C6000000C880B990B0E941B122A893B894C8926
:100C70005D890E946F132E853F85488959890E949E
:100C80007A126B017C0168857985072E000C880B30
:100C9000990B0E941B129B01AC01C701B6010E9477
:100CA0007A129B01AC0164E578EF8DE290E40E943A
:100CB000891420E030E040E85FE30E9470139B015C
:100CC000AC016A857B858C859D850E94DC132C8117
:100CD0003D814E815F810E947013DF91CF91FF9023
:100CE000EF90DF90CF9008952F923F924F925F92B6
:100CF0006F927F928F929F92AF92BF92CF92DF922C
:100D0000EF92FF920F931F93CF93DF93CDB7DEB790
:100D1000C154D1090FB6F894DEBF0FBECDBF83EA30
:100D200091E00E949702181619060CF05BC468E364
:100D300071E0CE0101960E947A050E94490297FD5A
:100D40001EC08A309105D9F08AA31BA20D811E8195
:100D50000F5F1F4FB801CE0101960E941505882331
:100D600061F329813A818D819E81BE016E5D7F4F45
:100D7000820F931F0E9456181E830D83DECF809131
:100D8000400290914102009709F451C069817A8133
:100D90006115710509F449C0409142025091430226
:100DA0002D813E814217530708F43FC00E94561818
:100DB0008D819E8190934502809344021E821D8204
:100DC000CE0101960E94D705409144025091450200
:100DD0004115510509F406C4609140027091410229
:100DE000DB018C91882309F4FDC31DAA1CAA1FAA4C
:100DF0001EAA19AE18AE6115710521F0CE01C49678
:100E00000E944F050CA91DA90115110539F1F80122
:100E100081918F01882311F1082E000C990B0E94FB
:100E20004518F80131978083F2CF0E94FF1689811F
:100E30009A8190934102809340028B819C81909390
:100E40004302809342028D819E819093450280935C
:100E500044021A8219821C821B82B0CF60E271E0C8
:100E6000CE0101960E947A05BE016F5F7F4FCE01D1
:100E7000C4960E94FA048C01CE0101960E94D70507
:100E800017FDF2C266E271E0CE018E960E947A05ED
:100E9000BE01625D7F4FCE01C4960E94FA0428AD68
:100EA00039ADAC014F5F5F4FBE016C5C7F4FCE012F
:100EB00088960E948B0568E271E0CE0101960E943F
:100EC0007A05BE016F5F7F4FCE0188960E94FA04BB
:100ED0008C01CE0101960E94D7050F3F1F4F09F4E8
:100EE000BBC268E271E0CE0101960E947A05BE01A4
:100EF0006F5F7F4FCE0188960E94FA049C0150E0FC
:100F000040E0BE01685D7F4FCE0182960E948B0556
:100F10008AA19BA110E0009719F00E94A10F162F43
:100F200010935B01CE0182960E94D705CE010196F7
:100F30000E94D70568E271E0CE0101960E947A0511
:100F4000BE016F5F7F4FCE0188960E94FA042CA5E8
:100F50003DA5AC014F5F5F4FBE01685D7F4FCE0185
:100F600082960E948B058AA19BA100E0009719F050
:100F70000E94A10F062F00935A01CE0182960E9473
:100F8000D705CE0101960E94D7051B3008F064C238
:100F90000B3008F061C220905E0130905F01D101FA
:100FA0001896CD90DD90ED90FC901B97612F70E02E
:100FB00090E080E00E941B12A70196010E9414128B
:100FC000882309F449C2612F70E090E080E00E941C
:100FD00019126CAF7DAF8EAF9FAFA70196010E9433
:100FE0006F134B015C0120E030E0A9010E948414E2
:100FF00024013501181624F077FA709477F870946C
:10100000F101E080F180D70192968D919C916485E9
:1010100075850E941316072E000C880B990B0E94F1
:101020001B12A30192010E947A120E944E14229672
:101030007FAF6EAF229711E020E030E0A901C5013B
:10104000B4010E94841418160CF010E0612F70E0B7
:10105000F701758F648F808D918D019721F48685BE
:1010600097850E949D0310E000E01BAE1AAE812C14
:10107000912C540122962EAD3FAD22974AAD5BAD27
:10108000421753070CF08CC1D1011E968C911E970C
:10109000811136C0F1018685811115C08081918151
:1010A0000E948A03892B09F0BDC0F10180819181E2
:1010B0000E948A03892B39F4F101848195810E9471
:1010C0003C03892BE1F5EAADFBAD3196FBAFEAAF0E
:1010D000D101ED91FC9120A12296EEADFFAD2297BA
:1010E0002E9FC0012F9F900D1124959587952AADB5
:1010F0003BAD821793070CF450C10F5F1F4FBACF5F
:101100008D919C910E948A03892B89F4F101808141
:1011100091810E948A03892B09F0BCCFF10184815F
:1011200095810E943C03892B09F0B4CF08C0D101FE
:1011300012968D919C910E943C03892B39F7F10105
:10114000E080F18064857585072E000C880B990B73
:101150000E941B122B013C01D70192966D917C914C
:10116000072E000C880B990B0E941B129B01AC01EF
:10117000C301B2010E94DC132B013C01F70160A105
:1011800070E090E080E00E941B129B01AC01C30163
:10119000B2010E94DC139B01AC01C501B4010E94A5
:1011A00070134B015C01D70158968D919C91599712
:1011B000019709F041C01C96ED90FC90C7010E9478
:1011C0003C0361E070E0892B11F070E060E0C70142
:1011D0000E949D03B801D10116968D919C910E94A9
:1011E00028066B017C010E9455146230710548F09D
:1011F000660F771F660F771F65507109CB01019746
:10120000F1F7A7019601C701B6010E94D9148823FE
:1012100091F18AE291E00E94A90486E391E00E94A4
:10122000A90451CFD10112968D919C910E943C034B
:10123000892B09F43ACF83CFF701828D938D8130CA
:101240009105A1F048F0029729F627E030E050E040
:1012500040E061E070E006C026E030E050E040E0B1
:1012600062E070E0C7010E941B04B4CF27E030E0C9
:1012700041E050E0F5CF26013701E89477F82FEFF1
:101280003FEF4FE75FE7C301B2010E94D91481111C
:101290000DC02FEF3FEF4FE75FE7C301B2010E94A0
:1012A000141218161CF48EE291E0B5CF2FEF3FEF29
:1012B0004FE75FE4C701B6010E94841418161CF4BE
:1012C00082E391E0A8CF2FEF3FEF4FE75FECC7013C
:1012D000B6010E94141287FDF3CF20E030E0A9018F
:1012E000C701B6010E94141287FF09C06DE283EAAC
:1012F00091E00E94CF02F7FAF094F7F8F0942AE018
:1013000037ED43EA5BE3C701B6010E9470132B017E
:101310003C010E9455146B017C010E9419129B0133
:10132000AC01C301B2010E946F132B013C014AE0E2
:10133000C701B6010E94B6046EE283EA91E00E9402
:10134000CF0220E030E040E251E4C301B2010E944C
:101350007A122B013C010E9455146B01F12CE12CF7
:101360004AE0C701B6010E94B604C701B6010E9457
:1013700019129B01AC01C301B2010E946F1320E05E
:1013800030E040E251E40E947A120E94551490E04D
:1013900080E04AE00E94B60440CF015011096ACEB5
:1013A0001BA21AA21DA21CA21FA21EA28E010F5FC9
:1013B0001F4F22E044E0C501B4010E94830F009753
:1013C00009F42AC1BC01CE0182960E94700569E32E
:1013D00071E0CE0101960E947A05EAA0FBA0E1141B
:1013E000F10409F41EC10EA11FA101151105B9F0E8
:1013F0008D819E81080F191FB801CE0101960E94B0
:101400001505882309F40DC129813A818D819E81BA
:10141000B701820F931F0E9456181E830D834D81C2
:101420005E8169817A8183EA91E00E94F90186E315
:1014300091E00E94A904CE0101960E94D705CE0139
:1014400082960E94D7058CAD9DADAEADBFADF101CA
:1014500080879187A287B387CE0188960E94D7059F
:10146000CE018E960E94D7056FE371E0CE01019602
:101470000E947A05BE016F5F7F4FCE01C4960E9425
:10148000FA048C01CE0101960E94D70517FD08C011
:1014900061E070E080919801909199010E949D0314
:1014A00061E471E0CE0101960E947A05BE016F5F92
:1014B0007F4FCE01C4960E94FA048C01CE010196A2
:1014C0000E94D70517FD08C070E060E08091980188
:1014D000909199010E949D0363E471E0CE01019611
:1014E0000E947A05BE016F5F7F4FCE01C4960E94B5
:1014F000FA048C01CE0101960E94D70517FD2AC07F
:1015000066E271E0CE0182960E947A05BE016E5DB0
:101510007F4FCE01C4960E94FA0428AD39ADAC01CC
:101520004F5F5F4FBE016C5C7F4FCE0101960E9402
:101530008B05BE016F5F7F4F80915E0190915F01CF
:101540000E94DF05CE0101960E94D705CE0182964A
:101550000E94D7056EE471E0CE0101960E947A05E3
:10156000BE016F5F7F4FCE01C4960E94FA048C01CA
:10157000CE0101960E94D70517FD2AC066E271E0F0
:10158000CE0182960E947A05BE016E5D7F4FCE012C
:10159000C4960E94FA0428AD39ADAC014F5F5F4F8D
:1015A000BE016C5C7F4FCE0101960E948B05BE018F
:1015B0006F5F7F4F80915C0190915D010E94DF051C
:1015C000CE0101960E94D705CE0182960E94D705D2
:1015D000CE01C4960E94D70568E371E080E492E0F2
:1015E0000E947005CF5BDF4F0FB6F894DEBF0FBED1
:1015F000CDBFDF91CF911F910F91FF90EF90DF90C2
:10160000CF90BF90AF909F908F907F906F905F90A2
:101610004F903F902F900895CE0182960E943D05F5
:10162000D6CECE0101960E943D05F9CE0E94A302BE
:1016300081110C94740608951F920F920FB60F92A9
:1016400011242F933F938F939F93AF93BF938091D8
:101650009F019091A001A091A101B091A2013091B0
:101660009A0123E0230F2D3758F50196A11DB11DD6
:1016700020939A0180939F019093A001A093A101D0
:10168000B093A20180919B0190919C01A0919D013A
:10169000B0919E010196A11DB11D80939B01909375
:1016A0009C01A0939D01B0939E01BF91AF919F912A
:1016B0008F913F912F910F900FBE0F901F90189513
:1016C00026E8230F0296A11DB11DD2CF1F920F92C3
:1016D0000FB60F9211242F933F934F935F936F9305
:1016E0007F938F939F93AF93BF93EF93FF9383EA7F
:1016F00091E00E94AD02FF91EF91BF91AF919F9158
:101700008F917F916F915F914F913F912F910F90AA
:101710000FBE0F901F9018951F920F920FB60F9249
:1017200011242F938F939F93EF93FF93E091B30135
:10173000F091B4018081E091B901F091BA0182FD8C
:101740001BC090818091BC018F5F8F732091BD0180
:10175000821741F0E091BC01F0E0ED55FE4F958F0E
:101760008093BC01FF91EF919F918F912F910F90EA
:101770000FBE0F901F9018958081F4CFE3EAF1E03F
:101780001382128288EE93E0A0E0B0E08483958318
:10179000A683B78382E191E09183808385EC90E01A
:1017A0009587848784EC90E09787868780EC90E02B
:1017B000918B808B81EC90E0938B828B82EC90E01C
:1017C000958B848B86EC90E0978B868B118E128E96
:1017D000138E148E68E371E080E492E00C947A0535
:1017E000CF93DF93CDB7DEB7A6970FB6F894DEBFE1
:1017F0000FBECDBF789484B5826084BD84B581600E
:1018000084BD85B5826085BD85B5816085BD8091CB
:101810006E00816080936E00109281008091810043
:10182000826080938100809181008160809381003B
:10183000809180008160809380008091B1008460FD
:101840008093B1008091B00081608093B00080915E
:101850007A00846080937A0080917A00826080931D
:101860007A0080917A00816080937A0080917A007A
:10187000806880937A001092C100E091B301F091EA
:10188000B40182E08083E091AF01F091B001108259
:10189000E091B101F091B2018FEC80831092BB0115
:1018A000E091B701F091B80186E08083E091B50145
:1018B000F091B601808180618083E091B501F09163
:1018C000B601808188608083E091B501F091B60116
:1018D000808180688083E091B501F091B6018081BC
:1018E0008F7D808386E090E00E9463169A838983CF
:1018F00030E020E041E06DE00E94030489819A819C
:10190000909399018093980186E090E00E9463167D
:101910009C838B8330E020E041E063E00E9403047D
:10192000AB81BC81B0939701A093960186E090E0D3
:101930000E9463169E838D8330E020E041E064E0E6
:101940000E940304ED81FE81F0939501E0939401E0
:1019500086E090E00E94631698878F8330E020E055
:1019600041E065E00E9403048F8198859093930184
:101970008093920186E090E00E9463169A8789879F
:1019800030E020E041E066E00E940304A985BA85CA
:10199000B0939101A093900186E090E00E946316BD
:1019A0009C878B8730E020E041E067E00E940304E1
:1019B000EB85FC85F0938F01E0938E0186E090E04B
:1019C0000E9463169E878D8730E020E041E068E04A
:1019D0000E9403048D859E8590938D0180938C01D8
:1019E00086E090E00E946316988B8F8721E030E0BC
:1019F00040E063E00E940304AF85B889B0938B0197
:101A0000A0938A0186E090E00E9463169A8B898BEE
:101A100021E030E040E064E00E940304E989FA89B3
:101A2000F0938901E093880186E190E00E946316BB
:101A30009A838983212C312C26E1422E24E4522ED4
:101A4000DC012D923D924D925C921397812C912C4A
:101A500038ECA32E32E4B32EFC0184829582A68258
:101A6000B78280E090E0AAEFB3E482879387A487EF
:101A7000B58781E090E0918780878DEC9CECACECA1
:101A8000BDE386879787A08BB18B4BE8C42E4EEBC6
:101A9000D42E42EEE42E42E4F42EC28AD38AE48AA3
:101AA000F58AF0938701E093860186E090E00E943A
:101AB00063169C8B8B8B30E020E041E06FE00E944E
:101AC0000304EB89FC89F0938501E093840186E0AF
:101AD00090E00E9463169E8B8D8B30E020E041E009
:101AE00060E10E9403048D899E8990938301809315
:101AF000820186E090E00E946316988F8F8B30E021
:101B000020E041E061E10E940304AF89B88DB09309
:101B10008101A093800186E090E00E9463169A8F75
:101B2000898F30E020E041E062E10E940304E98D0A
:101B3000FA8DF0937F01E0937E0186E090E00E94B1
:101B400063169C8F8B8F30E020E041E063E10E94C0
:101B500003048B8D9C8D90937D0180937C0186E0A6
:101B600090E00E9463169E8F8D8F30E020E041E070
:101B700064E10E940304AD8DBE8DB0937B01A09300
:101B80007A0186E090E00E94631698A38F8F21E08F
:101B900030E040E065E00E940304EF8DF8A1F0938F
:101BA0007901E093780186E090E00E9463169AA3A1
:101BB00089A321E030E040E066E00E94030489A1AF
:101BC0009AA1909377018093760186E190E00E943C
:101BD00063163C01DC012D923D924D925C9213976D
:101BE000FC0184829582A682B78280E090E0AAEF11
:101BF000B3E482879387A487B58781E090E09187DB
:101C000080878DEC9CECACECBDE386879787A08B3E
:101C1000B18BC28AD38AE48AF58A70927501609288
:101C2000740186E090E00E9463169CA38BA330E0D1
:101C300020E041E069E00E940304EBA1FCA1F093E5
:101C40006F01E0936E0186E090E00E9463161C0134
:101C500030E020E041E06AE00E94030430926D0130
:101C600020926C0186E090E00E9463164C0130E007
:101C700020E041E06BE00E94030490926B018092AF
:101C80006A0186E090E00E9463169EA38DA330E077
:101C900020E041E06CE00E9403048DA19EA190939E
:101CA00069018093680186E090E00E9463162C0130
:101CB00030E020E041E065E10E94030450926701BA
:101CC0004092660186E090E00E9463165C0130E07D
:101CD00020E041E066E10E940304B0926501A09219
:101CE000640186E090E00E9463166C0130E020E021
:101CF00041E067E10E940304D0926301C092620157
:101D000086E090E00E9463167C0130E020E041E034
:101D100068E10E940304F0926101E092600186E2B2
:101D200090E00E9463168C01DC015F961C921E926B
:101D30005E9740E061E070E00E947404F801138E49
:101D4000128E8B819C8191838083AD81BE81B38310
:101D5000A2838F81988595838483A985BA85B7836B
:101D6000A6838B859C8591878087AD85BE85B3874B
:101D7000A2878BA19CA1918B808B338A228A958A22
:101D8000848AADA1BEA1B78BA68B81E090E0958F30
:101D9000848F50E0852E51E0952E95A284A2118E5D
:101DA000108E109373010093720186E290E00E94FE
:101DB00063169C838B83DC015F961C921E925E9758
:101DC00040E061E070E00E947404EB81FC81138EBE
:101DD000128E8B899C8991838083AD89BE89B38360
:101DE000A2838F89988D95838483A98DBA8DB783BB
:101DF000A6838B8D9C8D91878087AD8DBE8DB3879B
:101E0000A287518A408AB38AA28AD58AC48AF78A6D
:101E1000E68A81E090E0958F848F95A284A2118E4E
:101E2000108EF0937101E09370018FE090E00E94BA
:101E30006316FC011183008308E010E01587048716
:101E40001686AF85B889B383A28389899A899583D9
:101E500084831086118612861386A981BA81B7837E
:101E6000A683F0935F01E0935E018FE090E00E9413
:101E70006316FC018B819C81918380831587048785
:101E80001686AF8DB8A1B383A28389A19AA1958349
:101E90008483108611861286138677826682F09379
:101EA0005D01E0935C010E94D3014B015C0168EB92
:101EB000C62E6BE0D62EE12CF12C0E94D3016819BE
:101EC00079098A099B09683E734081059105A8F349
:101ED00091E0C91AD108E108F108A8EE8A0EA3E042
:101EE0009A1EA11CB11CC114D104E104F10429F70C
:101EF0000E94A3028823E1F30E947406F9CF80E4D4
:101F000092E00C94D705EF920F931F93CF93DF933A
:101F1000E80134E047FD34E1042E000C550B57FF77
:101F200003C0519541955109E32E022F242FAE0194
:101F30000E94DD0FCE01DF91CF911F910F91EF90A5
:101F400008951F93FC0199278827BC01E8941191FB
:101F50001032E9F3193010F01E30C8F31B3251F083
:101F60001D3249F4689406C00E94C80F610F711DAC
:101F7000811D911D119110531A30B0F33EF49095CC
:101F80008095709561957F4F8F4F9F4F1F9108955A
:101F9000592F482F372F262F660F771F881F991F1D
:101FA000660F771F881F991F620F731F841F951F6D
:101FB000660F771F881F991F0895A9E0B0E0E3EE30
:101FC000FFE00C943E136A01F22EB02E102FFBE3BB
:101FD000AF2EA01608F41BE31F5F012F27E0AE0110
:101FE0004F5F5F4F0E943C11BC018981982F99700F
:101FF000913009F43FC09BE2E1FC04C09E2D91703A
:10200000E0FC3AC05E2D5071E82FE87083FF46C0B7
:1020100084E0911101C083E0EF2DE81B8F1508F0DB
:10202000E0E0D6018E2F20E2552351F1992329F0CB
:10203000D6019C93C60101966C0196012D5F3F4F1E
:10204000E2FE24C08EE4D6018C9391E411969C9319
:10205000119712968C93D9018E2F90E281111BC09B
:10206000E20FF32FF11D10828EEF9FEF2996ECE027
:102070000C945A139DE2C6CF90E2C4CF2D938150A9
:102080008111FCCFCE0ED11CE0E0D0CF8EE6D60180
:102090008C9391E6DBCF9D938150E0CF482F447025
:1020A00082FF3DC084E0911101C083E08F1510F4E0
:1020B000EF2DE81BD6018E2F20E2552309F199233D
:1020C00029F0D6019C93C60101966C0196012D5F03
:1020D0003F4FE2FE1BC089E4D6018C938EE411963B
:1020E0008C93119786E412968C93D9018E2F90E2EF
:1020F000882309F4B5CF9D938150FACF2D93815059
:102100008111FCCFCE0ED11CE0E0D9CF89E6D601FB
:102110008C938EE611968C93119786E6E4CF9B0103
:1021200077FF02C030E020E0A1E0B0E0911102C0F2
:10213000B0E0A0E0F9013196AE0FBF1F8B2C912CBF
:10214000BB2009F461C05401EFEFAE1ABE0AAA0D1C
:10215000BB1DFA161B0619F014F04F2D4A1B511126
:1021600088C0E3FC59C07601A42FB0E2A1114FC092
:10217000C40ED11C992309F45BC040E0D60111962E
:10218000F60190836D01552309F448C0012F060F15
:102190009A81582F507184FF03C0913309F4015084
:1021A00010160CF047C0093008F008E0EEE2FE2EF1
:1021B0005B01A01AB10885019194819491082F3F89
:1021C000320729F4D601FC92F60131966F016217AD
:1021D000730794F1021713077CF5DB01A21BB30B05
:1021E000AA24A394B12CAC0EBD1EAA0DBB1D119642
:1021F0008C9121503109D601119628153905F4F03A
:10220000F60180836D01DBCFB12CA12CA0CFF701AB
:10221000B1937F01A150AACF9111B0CFD601942FD5
:1022200050E302C05D9391509111FCCFC40ED11CBC
:1022300040E0ACCF01E0BACF80E3DBCF6217730799
:1022400031F4963388F4953311F4552369F0F6018F
:102250008083FD01842F90E2811108C0A40FB11D7D
:102260001C9290E080E002CF81E3F1CF9193815006
:10227000F3CF911183CF8ACF283008F027E033279E
:10228000DA01990F311D87FD916000966105710596
:1022900039F432602E5F3D9330E32A95E1F70895DB
:1022A0009F3F30F080387105610509F03C5F3C5F6D
:1022B0003D93913008F08068911DDF93CF931F9379
:1022C0000F93FF92EF92192F987F9695E92F96958D
:1022D0009695E90FFF27EC5BFE4F99273327EE24F5
:1022E000FF24A701E70105900894079428F4360F0E
:1022F000E71EF81E491F511D660F771F881F991F83
:102300000694A1F70590079428F4E70EF81E491FDC
:10231000561FC11D770F881F991F661F0694A1F7CE
:102320000590079428F4F80E491F561FC71FD11DAA
:10233000880F991F661F771F0694A1F705900794D1
:1023400020F4490F561FC71FD81F990F661F771F0C
:10235000881F0694A9F784911095177041F0D695BF
:10236000C79557954795F794E7941A95C1F7EAEE04
:10237000F0E06894159015913591659195910590CF
:102380007FE27395E118F10A430B560BC90BD00994
:10239000C0F7E10CF11E431F561FC91FD01D7EF46C
:1023A000703311F48A95E6CFE894015030F0080FAD
:1023B0000AF40027021708F4202F2395022F7A33FE
:1023C00028F079E37D932A95E9F710C07D932A954B
:1023D00089F6069497956795379517951794E118A0
:1023E000F10A430B560BC90BD00998F023957E9147
:1023F00073957A3308F070E37C932013B8F77E91DD
:1024000070617D9330F0839571E37D9370E32A953D
:10241000E1F71124EF90FF900F911F91CF91DF9181
:10242000992787FD909508950E94561208F481E03F
:102430000895E89409C097FB3EF4909580957095B7
:1024400061957F4F8F4F9F4F9923A9F0F92F96E900
:10245000BB279395F695879577956795B795F11175
:10246000F8CFFAF4BB0F11F460FF1BC06F5F7F4F12
:102470008F4F9F4F16C0882311F096E911C0772324
:1024800021F09EE8872F762F05C0662371F096E82D
:10249000862F70E060E02AF09A95660F771F881FFC
:1024A000DAF7880F9695879597F90895990F0008A0
:1024B000550FAA0BE0E8FEEF16161706E807F90716
:1024C000C0F012161306E407F50798F0621B730BB1
:1024D000840B950B39F40A2661F0232B242B252B32
:1024E00021F408950A2609F4A140A6958FEF811DD5
:1024F000811D08950E948D120C94FE120E94F0120C
:1025000038F00E94F71220F0952311F00C94E71296
:102510000C94ED1211240C9432130E940F1370F3DB
:10252000959FC1F3950F50E0551F629FF001729F78
:10253000BB27F00DB11D639FAA27F00DB11DAA1F87
:10254000649F6627B00DA11D661F829F2227B00DD4
:10255000A11D621F739FB00DA11D621F839FA00D5F
:10256000611D221F749F3327A00D611D231F849FAF
:10257000600D211D822F762F6A2F11249F57504006
:102580009AF0F1F088234AF0EE0FFF1FBB1F661F81
:10259000771F881F91505040A9F79E3F510580F04A
:1025A0000C94E7120C9432135F3FE4F3983ED4F39B
:1025B000869577956795B795F795E7959F5FC1F7EE
:1025C000FE2B880F911D9695879597F9089597F999
:1025D0009F6780E870E060E008959FEF80EC0895C9
:1025E00000240A94161617061806090608950024F2
:1025F0000A9412161306140605060895092E03946C
:10260000000C11F4882352F0BB0F40F4BF2B11F4DF
:1026100060FF04C06F5F7F4F8F4F9F4F089557FD3E
:102620009058440F551F59F05F3F71F04795880F40
:1026300097FB991F61F09F3F79F0879508951216D7
:1026400013061406551FF2CF4695F1DF08C0161683
:1026500017061806991FF1CF869571056105089434
:102660000895E894BB2766277727CB0197F908954B
:102670002F923F924F925F926F927F928F929F9292
:10268000AF92BF92CF92DF92EF92FF920F931F9380
:10269000CF93DF93CDB7DEB7CA1BDB0B0FB6F89431
:1026A000DEBF0FBECDBF09942A88398848885F8471
:1026B0006E847D848C849B84AA84B984C884DF80E2
:1026C000EE80FD800C811B81AA81B981CE0FD11DC6
:1026D0000FB6F894DEBF0FBECDBFED010895505880
:1026E000BB27AA270E9487130C94FE120E94F012A7
:1026F00038F00E94F71220F039F49F3F19F426F4C5
:102700000C94ED120EF4E095E7FB0C94E712E92F20
:102710000E940F1358F3BA176207730784079507CF
:1027200020F079F4A6F50C9431130EF4E0950B2EFD
:10273000BA2FA02D0B01B90190010C01CA01A00113
:102740001124FF27591B99F0593F50F4503E68F16E
:102750001A16F040A22F232F342F4427585FF3CFAF
:10276000469537952795A795F0405395C9F77EF480
:102770001F16BA0B620B730B840BBAF09150A1F0C9
:10278000FF0FBB1F661F771F881FC2F70EC0BA0F4F
:10279000621F731F841F48F4879577956795B795D7
:1027A000F7959E3F08F0B0CF9395880F08F09927D2
:1027B000EE0F9795879508950E94F0130C94FE12E2
:1027C0000E94F71258F00E94F01240F029F45F3F87
:1027D00029F00C94E71251110C9432130C94ED1261
:1027E0000E940F1368F39923B1F3552391F3951BBE
:1027F000550BBB27AA2762177307840738F09F5F22
:102800005F4F220F331F441FAA1FA9F335D00E2E8E
:102810003AF0E0E832D091505040E695001CCAF7FB
:102820002BD0FE2F29D0660F771F881FBB1F2617BE
:1028300037074807AB07B0E809F0BB0B802DBF0195
:10284000FF2793585F4F3AF09E3F510578F00C9464
:10285000E7120C9432135F3FE4F3983ED4F386956D
:1028600077956795B795F7959F5FC9F7880F911D85
:102870009695879597F90895E1E0660F771F881F71
:10288000BB1F621773078407BA0720F0621B730B24
:10289000840BBA0BEE1F88F7E09508950E9455143B
:1028A0006894B1110C94321308950E94171388F0A4
:1028B0009F5798F0B92F9927B751B0F0E1F0660F04
:1028C000771F881F991F1AF0BA95C9F714C0B13045
:1028D00091F00E943113B1E008950C943113672FE9
:1028E000782F8827B85F39F0B93FCCF38695779574
:1028F0006795B395D9F73EF490958095709561955D
:102900007F4F8F4F9F4F08950E94561208F48FEF0C
:102910000895FA01EE0FFF1F309621053105A1F150
:102920006115710561F48038BFE39B0749F1689434
:102930009038810561F08038BFEF9B0741F0992303
:102940004AF5FF3FE1053105210519F1E8940894A6
:10295000E795D901AA2329F4AB2FBE2FF85FD0F356
:1029600010C0FF5F70F4A695E0F7F73950F019F04A
:10297000FF3A38F49F779F930DD00F9007FC905843
:10298000089546F00C94ED1260E070E080E89FE35B
:1029900008954FE79F775F934F933F932F930E9444
:1029A00089152F913F914F915F910E947A120C945B
:1029B000E6140E945612880B990B089529F416F01C
:1029C0000C94E7120C9431130C94ED120E9417131F
:1029D000A8F39638A0F707F80F92E8942BE33AEAA9
:1029E00048EB5FE70E9490120F920F920F924DB743
:1029F0005EB70F920E94D115E8E6F0E00E9418152C
:102A00004F915F91EF91FF91E595EE1FFF1F49F008
:102A1000FE57E0684427EE0F441FFA95E1F7419511
:102A2000550B0E944B150F9007FE0C943F1508950F
:102A3000DF93CF931F930F93FF92EF92DF927B016F
:102A40008C01689406C0DA2EEF010E948D12FE01FF
:102A5000E894A5912591359145915591A6F3EF0103
:102A60000E948713FE019701A801DA9469F7DF90AD
:102A7000EF90FF900F911F91CF91DF9108959B01EF
:102A8000AC0160E070E080E89FE30C94DC130C94F0
:102A9000E7120C9405160E941713D8F39923C9F373
:102AA000940F511DA3F39150504094F059F0882396
:102AB00032F0660F771F881F91505040C1F79E3F3C
:102AC00051052CF7880F911D9695879597F90895D4
:102AD0005F3FACF0983E9CF0BB2786957795679555
:102AE000B79508F4B1609395C1F7BB0F58F711F48F
:102AF00060FFE8CF6F5F7F4F8F4F9F4FE3CF0C9406
:102B0000321316F00C9405160C94ED1268940C9484
:102B1000E7120E941713A8F39923C1F3AEF3DF93D2
:102B2000CF931F930F93FF92C92FDD2788232AF09D
:102B30002197660F771F881FDAF720E030E040E822
:102B40005FEB9FE3883920F0803E38F021968F7745
:102B50000E947013E0E9F0E004C00E947013EDEBF6
:102B6000F0E00E9418158B01BE01EC01FB2E6F579F
:102B700071097595771F880B990B0E941B1228E12C
:102B800032E741E35FE30E948D12AF2D9801AE0161
:102B9000FF900F911F91CF91DF910E9487130C94AA
:102BA000FE12FA01DC01AA0FBB1F9B01AC01BF574B
:102BB00028F4222733274427507820C0B75190F4B7
:102BC000AB2F0024469537952795011CA395D2F38A
:102BD000002071F0220F331F441FB395DAF30ED09B
:102BE0000C946F1361307105A0E88A07B94630F480
:102BF0009B01AC016627772788279078309621F0D3
:102C0000208331834283538308959F3F31F0915055
:102C100020F4879577956795B795880F911D9695C0
:102C2000879597F9089597FB072E16F4009407D01F
:102C300077FD09D00E94491607FC05D03EF4909517
:102C400081959F4F0895709561957F4F0895A1E2FA
:102C50001A2EAA1BBB1BFD010DC0AA1FBB1FEE1F16
:102C6000FF1FA217B307E407F50720F0A21BB30B61
:102C7000E40BF50B661F771F881F991F1A9469F7DD
:102C800060957095809590959B01AC01BD01CF0139
:102C90000895AA1BBB1B51E107C0AA1FBB1FA617A3
:102CA000B70710F0A61BB70B881F991F5A95A9F7F5
:102CB00080959095BC01CD010895EE0FFF1F059002
:102CC000F491E02D09940F931F93CF93DF938230FB
:102CD000910510F482E090E0E0914802F091490201
:102CE00030E020E0B0E0A0E0309799F42115310504
:102CF00009F44AC0281B390B24303105D8F58A81E4
:102D00009B816115710589F1FB0193838283FE012B
:102D100011C0408151810281138148175907E0F0A9
:102D20004817590799F4109761F012960C9312976F
:102D300013961C933296CF01DF91CF911F910F9183
:102D400008950093480210934902F4CF21153105EC
:102D500051F04217530738F0A901DB019A01BD0178
:102D6000DF01F801C1CFEF01F9CF909349028093C1
:102D70004802CDCFFE01E20FF31F819391932250C1
:102D8000310939832883D7CF2091460230914702F9
:102D9000232B41F420910A0130910B01309347021B
:102DA0002093460220910801309109012115310537
:102DB00041F42DB73EB740910C0150910D01241BF9
:102DC000350BE0914602F0914702E217F307A0F4B9
:102DD0002E1B3F0B2817390778F0AC014E5F5F4F71
:102DE0002417350748F04E0F5F1F5093470240935A
:102DF0004602819391939FCFF0E0E0E09CCFCF9388
:102E0000DF930097E9F0FC01329713821282A091C0
:102E10004802B0914902ED0130E020E01097A1F4A2
:102E200020813181820F931F209146023091470209
:102E30002817390709F061C0F0934702E093460272
:102E4000DF91CF910895EA01CE17DF07E8F54A81B7
:102E50005B819E0141155105B1F7E901FB83EA83CE
:102E600049915991C40FD51FEC17FD0761F480817A
:102E700091810296840F951FE9019983888382814D
:102E800093819B838A83F0E0E0E012968D919C9180
:102E900013970097B9F52D913C911197CD010296AA
:102EA000820F931F2091460230914702281739075D
:102EB00039F6309751F51092490210924802B093BA
:102EC0004702A0934602BCCFD383C2834081518185
:102ED000840F951FC817D90761F44E5F5F4F888133
:102EE0009981480F591F518340838A819B81938325
:102EF00082832115310509F0B0CFF0934902E093A8
:102F000048029ECFFD01DC01C0CF13821282D7CFD1
:102F1000B0E0A0E0EEE8F7E10C943A138C010097E2
:102F200051F4CB010E9463168C01C801CDB7DEB706
:102F3000E0E10C945613FC01E60FF71F9C012250B0
:102F40003109E217F30708F49DC0D901CD91DC9156
:102F50001197C617D70798F0C530D10530F3CE01C9
:102F600004978617970708F3C61BD70B2297C193C0
:102F7000D1936D937C93CF010E94FF16D6CF5B0156
:102F8000AC1ABD0A4C018C0E9D1EA0914802B09156
:102F90004902512C412CF12CE12C109731F58091F4
:102FA0004602909147028815990509F05CC04616C3
:102FB000570608F058C080910801909109010097C8
:102FC00041F48DB79EB740910C0150910D01841BC7
:102FD000950BE817F90708F055C0F0934702E09306
:102FE0004602F90171836083A0CF8D919C91119766
:102FF00012966C90129713967C901397A815B905AA
:1030000059F56C0142E0C40ED11CCA14DB0420F156
:10301000AC014A195B09DA011296159780F06282B9
:10302000738251834083D9016D937C93E114F10441
:1030300071F0D7011396FC93EE93129776CF2296F8
:103040008C0F9D1FF90191838083F301EFCFF093E3
:103050004902E093480269CF4816590608F42C014A
:103060007D01D3019ACFCB010E9463167C010097AA
:1030700049F0AE01B8010E944D18C8010E94FF1628
:10308000870153CF10E000E050CF91110895815691
:103090008A5108F4805285580895FB01DC0102C072
:1030A00001900D9241505040D8F70895FB01DC018A
:1030B00001900D920020E1F70895FB0151915523F5
:1030C000A9F0BF01DC014D9145174111E1F759F419
:1030D000CD010190002049F04D9140154111C9F3F7
:1030E000FB014111EFCF81E090E00197089511E0DD
:1030F000C0E2D1E004C0FE010E945D162196C132FB
:08310000D107C9F7F894FFCFD5
:103108000901030206040C0800004A0280000000BE
:103118000000CF02F90126021C039702350289023A
:103128004D4F5645520020002C006E616E00696EAE
:1031380066006F7666000D0A00646973743A004C85
:103148000044004D4F444F504153534F58004D4F8A
:0A315800444F504153534F590000FB
:00000001FF
