:100000000C94C2000C94EA000C94EA000C94EA00F0
:100010000C94EA000C94EA000C94EA000C94EA00B8
:100020000C94EA000C94EA000C94EA000C94EA00A8
:100030000C94EA000C94EA000C94EA000C94EA0098
:100040000C94C40B0C94EA000C94340C0C940E0C1D
:100050000C94EA000C94EA000C94EA000C94EA0078
:100060000C94EA000C94EA0007634236B79BD8A7C9
:100070001A39685618AEBAAB558C1D3CB7CC5763CD
:10008000BD6DEDFD753EF6177231BF000000803F7B
:1000900008000000BE922449123EABAAAA2ABECD97
:1000A000CCCC4C3E00000080BEABAAAAAA3E000009
:1000B0000000BF000000803F000000000008417801
:1000C000D3BB4387D1133D190E3CC3BD4282AD2B38
:1000D0003E68EC8276BED98FE1A93E4C80EFFFBE30
:1000E00001C4FF7F3F00000000004E414E494E49D1
:1000F0005459494E46CDCCCC3D0AD7233C17B7D1F5
:100100003877CC2B329595E6241FB14F0A0000209A
:10011000410000C84200401C4620BCBE4CCA1B0E19
:100120005AAEC59D7400000000230026002900007F
:10013000000000240027002A0000000000250028FD
:10014000002B00040404040404040402020202025A
:10015000020303030303030102040810204080018B
:10016000020408102001020408102000000008000A
:10017000020100000304070000000000000000006E
:10018000660CA71011241FBECFEFD8E0DEBFCDBF95
:1001900022E0AEE5B1E001C01D92A235B207E1F761
:1001A00011E0A0E0B1E0E6E2F2E302C005900D92BA
:1001B000AE35B107D9F710E0C1ECD0E004C021970B
:1001C000FE010E94EC16C03CD107C9F70E94980CB2
:1001D0000C9406190C940000833081F028F48130CF
:1001E00099F08230A9F008958730A9F08830C9F0DD
:1001F0008430B1F4809180008F7D03C080918000B5
:100200008F7780938000089584B58F7784BD08959B
:1002100084B58F7DFBCF8091B0008F778093B00045
:1002200008958091B0008F7DF9CF1F93CF93DF9316
:10023000282F30E0F901E559FE4F8491F901E95A80
:10024000FE4FD491F901ED5BFE4FC491CC23A9F090
:10025000162F81110E94EC00EC2FF0E0EE0FFF1F33
:10026000E75CFE4FA591B4918FB7F894EC91111112
:1002700008C0D095DE23DC938FBFDF91CF911F9113
:100280000895DE2BF8CFCF93DF9390E0FC01E95A7D
:10029000FE4F24918D5B9E4FFC0184918823D1F009
:1002A00090E0880F991FFC01E15DFE4FA591B4918C
:1002B000FC01E75CFE4FC591D49161110EC09FB760
:1002C000F8948C91E22FE0958E238C932881E22381
:1002D000E8839FBFDF91CF9108958FB7F894EC9199
:1002E000E22BEC938FBFF6CF3FB7F8948091A1013A
:1002F0009091A201A091A301B091A40126B5A89B61
:1003000005C02F3F19F00196A11DB11D3FBFBA2FA7
:10031000A92F982F8827BC01CD01620F711D811D67
:10032000911D42E0660F771F881F991F4A95D1F7EC
:1003300008950895AF92BF92CF92DF92EF92FF920D
:100340000F931F93CF93DF936C017B018B01040FFD
:10035000151FEB015E01AE18BF08C017D10759F099
:100360006991D601ED91FC910190F081E02DC601DB
:100370000995892B79F7C501DF91CF911F910F91D5
:10038000FF90EF90DF90CF90BF90AF900895FC0169
:10039000538D448D252F30E0842F90E0821B930BEA
:1003A000541710F0CF96089501970895FC01918D90
:1003B000828D981761F0A28DAE0FBF2FB11D5D9693
:1003C0008C91928D9F5F9F73928F90E008958FEF35
:1003D0009FEF08952FB7F8948091A5019091A60101
:1003E000A091A701B091A8012FBF8093B101909374
:1003F000B201A093B301B093B40189EA91E00E94E5
:10040000D60197FF26C02FB7F8948091A50190914F
:10041000A601A091A701B091A8012FBF4091B10101
:100420005091B2016091B3017091B401841B950B9E
:10043000A60BB70B4091AD015091AE016091AF0199
:100440007091B00184179507A607B707B0F28FEF38
:100450009FEF0895FC01918D828D981731F0828D68
:10046000E80FF11D858D90E008958FEF9FEF0895BF
:10047000FC01918D228D892F90E0805C9F4F821B23
:1004800091098F739927089589EA91E00E943802B3
:1004900021E0892B09F420E0822F0895FC01A48D2E
:1004A000A80FB92FB11DA35ABF4F2C91848D90E096
:1004B00001968F739927848FA689B7892C93A08979
:1004C000B1898C91837080648C93938D848D981303
:1004D00006C00288F389E02D80818F7D8083089596
:1004E000EF92FF920F931F93CF93DF93EC0181E084
:1004F000888F9B8D8C8D98131AC0E889F98980812B
:1005000085FF15C09FB7F894EE89FF896083E8895D
:10051000F98980818370806480839FBF81E090E04F
:10052000DF91CF911F910F91FF90EF900895F62EDC
:100530000B8D10E00F5F1F4F0F731127E02E8C8D76
:100540008E110CC00FB607FCFACFE889F9898081BB
:1005500085FFF5CFCE010E944E02F1CFEB8DEC0F5F
:10056000FD2FF11DE35AFF4FF0829FB7F8940B8FD8
:10057000EA89FB8980818062CFCFCF93DF93EC0142
:10058000888D8823B9F0AA89BB89E889F9898C917B
:1005900085FD03C0808186FD0DC00FB607FCF7CF37
:1005A0008C9185FFF2CF808185FFEDCFCE010E9437
:1005B0004E02E9CFDF91CF9108950F931F93CF9310
:1005C000DF93EC012A8188819981019749F530E018
:1005D000F901E559FE4F8491F901E95AFE4F049162
:1005E000F901ED5BFE4F1491112391F181110E94ED
:1005F000EC00E12FF0E0EE0FFF1FEB5DFE4FA59149
:10060000B491EC910E2331E020E009F430E0832F27
:10061000922F9D838C83DF91CF911F910F9108952D
:100620002E3008F02E502770206420937C0080919B
:100630007A00806480937A0080917A0086FDFCCFF6
:100640009091780080917900892798278927E1CFB8
:1006500090E080E0DECFCF93DF93EC01888D998D21
:10066000019751F48E859F850E94DD02892B49F404
:100670008FEF9FEF9D8F8C8F8C8D9D8DDF91CF9114
:10068000089581E090E0F6CF1F93CF93DF93FC01B4
:1006900075836483128180819181019731F4812F68
:1006A000DF91CF911F910C941501EB0161E0812F37
:1006B0000E944301209711F460E0F1CFCF3FD105B4
:1006C00011F461E0ECCFE12FF0E0E559FE4FE49149
:1006D000E33031F140F4E130B1F0E230E1F0C03824
:1006E000D1057CF7E9CFE73029F1E83059F1E43062
:1006F000B1F780918000806280938000D0938B005E
:10070000C0938A0004C084B5806884BDC7BDDF91F2
:10071000CF911F91089584B5806284BDC8BDF7CF85
:1007200080918000806880938000D0938900C0937E
:100730008800EDCF8091B00080688093B000C093B6
:10074000B300E5CF8091B00080628093B000C09389
:10075000B400DDCF0F931F93CF93DF93EC01862F6F
:10076000890121E030E0398328836A834B83642F39
:100770000E944301B801CE01DF91CF911F910F91EB
:100780000C944403AF92BF92CF92DF92EF92FF920C
:100790000F931F93CF93DF93EC015B016A01790103
:1007A000ECA1FDA18E8D9F8DE80FF91F6081062FB2
:1007B000617070E0888999890E94440301FB662773
:1007C00060F970E08A899B890E94440302FB6627D6
:1007D00060F970E08C899D890E94440303FB6627C1
:1007E00060F970E08E899F890E9444038C8D9D8DF5
:1007F0006E8D7F8D0197C9F46A0D7B1D6E157F0587
:10080000BCF47F8F6E8F8E8D9F8D8C159D0514F49B
:10081000FF8EEE8EDF91CF911F910F91FF90EF90A1
:10082000DF90CF90BF90AF9008956A197B09E6CF13
:10083000DF8ECE8EE8CFCF93DF93FC01208D318DFC
:100840002130310581F4C485D585CE010E94DD02B9
:1008500061E070E0892B11F070E060E0CE01DF9183
:10086000CF910C944403228D338D2130310589F0D2
:1008700030F02230310591F0DF91CF91089526E0DC
:1008800030E050E040E062E070E0DF91CF910C9406
:10089000C20327E030E041E050E0F5CF27E030E050
:1008A00050E040E061E070E0F0CFCF93DF93EC01E7
:1008B000E881F9818FEF9FEF958F848F808D918DE7
:1008C000019731F470E060E0868597850E944403CB
:1008D0008C819D810E94DD02892B29F0888199817C
:1008E0000E941B04F5CF19861886DF91CF910895D9
:1008F0000F931F93CF93DF93EC0179A368A328ECA8
:10090000269FC001279F900D11249BA38AA3042F2B
:1009100010E0B80175956795759567958E819F81F3
:100920000E94440301FB662760F970E08885998581
:100930000E94440370E060E08A859B850E94440326
:1009400081E090E09F8F8E8FDF91CF911F910F916B
:100950000895FC0101900020E9F73197AF01481B91
:10096000590BBC0189EA91E00C949A018F929F92F5
:10097000AF92BF920F931F93CF93DF93CDB7DEB7A4
:10098000A1970FB6F894DEBF0FBECDBF19A24230BB
:1009900008F44AE08E010F5D1F4F842E912CB12C7C
:1009A000A12CA50194010E94B616E62FB901CA0137
:1009B000EA30F4F4E05DD801EE938D01232B242B73
:1009C000252B79F790E080E0109719F0CD010E9477
:1009D000A904A1960FB6F894DEBF0FBECDBFDF917C
:1009E000CF911F910F91BF90AF909F908F900895DE
:1009F000E95CE1CF4F925F926F927F928F929F92CC
:100A0000AF92BF92CF92DF92EF92FF926B017C0187
:100A1000AC019B010E9468158823C1F080E291E03F
:100A20000E94A9047C018CE291E00E94A9048E0D31
:100A30009F1DFF90EF90DF90CF90BF90AF909F9061
:100A40008F907F906F905F904F900895460157016F
:100A5000E894B7F82FEF3FEF4FE75FE7C501B40128
:100A60000E94681581110DC02FEF3FEF4FE75FE740
:100A7000C501B4010E94861218161CF484E291E0AC
:100A8000CFCF2FEF3FEF4FE75FE4C701B6010E94E2
:100A9000131518161CF488E291E0C2CF2FEF3FEF38
:100AA0004FE75FECC701B6010E94861287FDF3CFC6
:100AB00020E030E0A901C701B6010E948612B12CE6
:100AC000A12C87FF0AC06DE289EA91E00E947002C2
:100AD0005C01F7FAF094F7F8F0942AE037ED43EA76
:100AE0005BE3C701B6010E94FF132B013C010E948A
:100AF000E4146B017C010E948B129B01AC01C301C9
:100B0000B2010E94FE132B013C014AE0C701B6016D
:100B10000E94B6047C01EA0CFB1C6EE289EA91E0BB
:100B20000E947002E80EF91E20E030E040E251E43D
:100B3000C301B2010E94EC122B013C010E94E4149B
:100B40004B01B12CA12C4AE0C501B4010E94B604AE
:100B5000E80EF91EC501B4010E948B129B01AC0185
:100B6000C301B2010E94FE1320E030E040E251E4F4
:100B70000E94EC120E94E41490E080E04AE00E949F
:100B8000B604E80EF91E4FCFCF93DF93DC01149625
:100B90002D913C911597232B79F0FB01CD91DC91A0
:100BA00060817181CE010E94EC18009729F08C1BA6
:100BB0009D0BDF91CF9108958FEF9FEFFACF0F93A9
:100BC0001F93CF93DF93EC0188819981009759F0AF
:100BD0002A813B812617370730F081E0DF91CF91E2
:100BE0001F910F9108958B016F5F7F4F0E9417181F
:100BF000009759F0998388831B830A832C813D8158
:100C0000232B59F7FC011082E8CF80E0E7CFEF9269
:100C1000FF920F931F93CF93DF936115710541F4FA
:100C200080E0DF91CF911F910F91FF90EF90089599
:100C300041155105B1F07B01EC010C811D81040FC0
:100C4000151FB8010E94DF05882351F328813981DF
:100C50008C819D81B701820F931F0E94E5181D832F
:100C60000C8381E0DECFCF93DF93EC018881998103
:100C7000009711F00E948E17198218821D821C8223
:100C80001B821A82DF91CF910895EF92FF920F930A
:100C90001F93CF93DF93EC017B018A01BA010E947D
:100CA000DF0581110BC0CE010E943306CE01DF911A
:100CB000CF911F910F91FF90EF9008951D830C83AA
:100CC000B701888199810E94E518F0CFFB0101905E
:100CD0000020E9F73197AF01461B570B0C944506EE
:100CE0000F931F93CF93DF93CDB7DEB761970FB606
:100CF000F894DEBF0FBECDBF8C01CB01F80111828D
:100D0000108213821282158214824AE0BE016F5F44
:100D10007F4F0E94EB10BE016F5F7F4FC8010E94A2
:100D2000660661960FB6F894DEBF0FBECDBFDF91A9
:100D3000CF911F910F910895FC01118210821382AF
:100D4000128215821482FB0101900020E9F731978D
:100D5000AF01461B570B0C944506AF92BF92CF9242
:100D6000DF92EF92FF920F931F93CF93DF936C016B
:100D70005B017A0189012417350720F48F2D790151
:100D8000042F182F6EE271E0C6010E949C06D50167
:100D90001496CD91DC91EC16FD06E0F40C171D07BE
:100DA00008F4E801D501ED91FC911197EC0FFD1FBE
:100DB000108110826D917C916E0D7F1DC6016115B1
:100DC0007105A1F00E946606F50180819181C80F2E
:100DD000D91F1883C601DF91CF911F910F91FF900A
:100DE000EF90DF90CF90BF90AF9008950E943306B0
:100DF000EBCFFC0180819181009711F00C948E174C
:100E00000895CF93DF93EC01FB01808191810097DE
:100E100069F00E94AF10623071058105910501F102
:100E200044F4613071058105910589F0DF91CF911E
:100E300008956430710581059105B1F06830710540
:100E40008105910599F746E068E070E003C040E055
:100E500061E070E088819981DF91CF910C947804F2
:100E600044E062E070E0F6CF42E064E070E0F2CF90
:100E70002F923F924F925F926F927F928F929F92AA
:100E8000AF92BF92CF92DF92EF92FF920F931F9398
:100E9000CF93DF93CDB7DEB72C970FB6F894DEBFB4
:100EA0000FBECDBF8C0188EE93E0689F6001699F03
:100EB000D00C789FD00C1124D80118968D919C915C
:100EC0001997C81AD90AED90FC90B6010D2C000CA8
:100ED000880B990B0E948D124B015C01E894B7F8C6
:100EE000F70162A173A1072E000C880B990B0E94D9
:100EF0008D129B01AC01C501B4010E94EC124B01A3
:100F00005C01D8011A966D917C91072E000C880B1C
:100F1000990B0E948D129B01AC01C501B4010E9486
:100F20006B140E94DD141B01AA24A394B12C1C1481
:100F30001D041CF0AA24AA94BA2CF701B58EA48E25
:100F4000808D918D019771F461E070E0F1E0AF1652
:100F5000B10411F070E060E0D7011E968D919C9174
:100F60000E944403F12CE12C912C812C82149304D7
:100F70000CF04CC1F801848195810E94DD02892B1F
:100F800009F063C0D80112968D919C910E94DD02F8
:100F9000BC01CE0101960E9470066FE271E0CE01A5
:100FA00007960E949C064D815E8169817A81CE01FF
:100FB00007960E940706811104C0CE0107960E9481
:100FC00033064B855C856F81788589EA91E00E94C4
:100FD0009A01CE0107960E94F906CE0101960E9461
:100FE000F906D80114968D919C910E94DD02BC01F6
:100FF000CE0101960E94700664E371E0CE0107966F
:101000000E949C064D815E8169817A81CE0107969E
:101010000E940706811104C0CE0107960E94330684
:101020004B855C856F81788589EA91E00E949A0101
:101030008CE291E00E94A904CE0107960E94F90675
:10104000CE0101960E94F90608C0F80182819381C1
:101050000E94DD02892B09F495CFF8018485811166
:101060001EC0D8011C968C9181114FC0F80180815F
:1010700091810E942B03892B09F0BBC0D8018D916F
:101080009C910E942B03892B09F03FC0D801149634
:101090008D919C910E94DD02892BF1F436C08081F4
:1010A00091810E942B03892B81F4D8018D919C9111
:1010B0000E942B03892BA9F6D80114968D919C913F
:1010C0000E94DD02892B69F607C0F80182819381B5
:1010D0000E94DD02892B49F7D801ED91FC9111970F
:1010E0001A968D919C9162A173A10E94A2166A9D8D
:1010F00090016B9D300D7A9D300D1124F801808593
:101100009185820F931F91878087F801808191815B
:101110000E941B04D8011696CD90DC90B7010F2CCD
:10112000000C880B990B0E948D12F60120893189E1
:10113000428953890E94FE13D6011C962D913D9140
:101140004D915C911F970E94EC122B013C01F6011E
:1011500064897589072E000C880B990B0E948D12EB
:101160009B01AC01C301B2010E94EC129B01AC01D6
:1011700064E578EF8DE290E40E94181520E030E0FD
:1011800040E85FE30E94FF139B01AC01D601189673
:101190006D917D918D919C911B970E946B14F6012E
:1011A00024813581468157810E94FF130E94E414F7
:1011B0006230710548F0660F771F660F771F655024
:1011C0007109CB010197F1F7FFEF8F1A9F0AD80140
:1011D000ED91FC9120A1229DC001239D900D112431
:1011E00095958795881599056CF0BFEFEB1AFB0A6A
:1011F000BDCEF801828193810E94DD02892B09F422
:101200003DCF6ACFE1E0EE1AF108B0CE2C960FB6D2
:10121000F894DEBF0FBECDBFDF91CF911F910F912C
:10122000FF90EF90DF90CF90BF90AF909F908F9006
:101230007F906F905F904F903F902F9008958F9286
:101240009F92AF92BF92EF92FF920F931F93CF9313
:10125000DF93CDB7DEB76E970FB6F894DEBF0FBE43
:10126000CDBF89EA91E00E943802181619060CF0E9
:101270006CC26EE271E0CE0101960E949C060E9453
:10128000EA0197FD1EC08A309105D9F08F83188638
:101290000D811E810F5F1F4FB801CE0101960E9484
:1012A000DF05882361F329813A818D819E81BE010A
:1012B000695F7F4F820F931F0E94E5181E830D8385
:1012C000DECF8091460290914702009709F451C009
:1012D00069817A816115710509F449C0409148021C
:1012E000509149022D813E814217530708F43FC0B7
:1012F0000E94E5188D819E8190934B0280934A0253
:101300001E821D82CE0101960E94F90640914A027A
:1013100050914B024115510509F417C260914602E4
:1013200070914702FB018081882309F40EC21A8E56
:10133000198E1C8E1B8E1E8E1D8E6115710521F05F
:10134000CE0149960E944506098D1A8D0115110599
:1013500039F1F80181918F01882311F1082E000CD9
:10136000990B0E94D418F80131978083F2CF0E9424
:101370008E1789819A8190934702809346028B81D0
:101380009C8190934902809348028D819E81909325
:101390004B0280934A021A8219821C821B82B0CFB0
:1013A0006AE371E0CE0101960E949C06BE016F5F68
:1013B0007F4FCE0149960E94C4058C01CE01019653
:1013C0000E94F90617FD03C160E471E0CE01439667
:1013D0000E949C06BE016D5E7F4FCE0149960E9421
:1013E000C4052D8D3E8DAC014F5F5F4FBE01675E22
:1013F0007F4FCE010D960E94AD0662E471E0CE01F2
:1014000001960E949C06BE016F5F7F4FCE010D9634
:101410000E94C4058C01CE0101960E94F9060F3F7F
:101420001F4F09F4CCC062E471E0CE0101960E9426
:101430009C06BE016F5F7F4FCE010D960E94C405D2
:101440009C0150E040E0BE01635F7F4FCE010796F4
:101450000E94AD068F819885009709F487C10E948C
:10146000AB100E94DD147093610160936001CE01A6
:1014700007960E94F906CE0101960E94F90662E4E1
:1014800071E0CE0101960E949C06BE016F5F7F4F06
:10149000CE010D960E94C40529893A89AC014F5F9F
:1014A0005F4FBE01635F7F4FCE0107960E94AD067E
:1014B0008F819885009709F45DC10E94AB100E944E
:1014C000DD147B0170935F0160935E01CE0107968E
:1014D0000E94F906CE0101960E94F9060091600172
:1014E000109161010B30110508F069C08BE0E8161E
:1014F000F10408F064C0E0906401F0906501B80167
:10150000012E000C880B990B0E948D124B015C017F
:10151000F70160857185072E000C880B990B0E94DE
:101520008D129B01AC01C501B4010E948612882373
:1015300091F0B801C7010E943807E0916401F09171
:10154000650160857185072E000C880B990B0E9440
:101550008D120E94FA04E0905E01F0905F0100910C
:10156000620110916301B7010F2C000C880B990BDD
:101570000E948D124B015C01F80160857185072E78
:10158000000C880B990B0E948D129B01AC01C501C8
:10159000B4010E948612882391F0B701C8010E940D
:1015A0003807E0916201F091630160857185072E33
:1015B000000C880B990B0E948D120E94FA04CE0138
:1015C0000D960E94F906CE0143960E94F90664E446
:1015D00071E0CE0101960E949C06BE016F5F7F4FB5
:1015E000CE0149960E94C4058C01CE0101960E944D
:1015F000F90617FD08C061E070E080919E019091AE
:101600009F010E94440366E471E0CE0101960E94AE
:101610009C06BE016F5F7F4FCE0149960E94C405B4
:101620008C01CE0101960E94F90617FD08C070E0FA
:1016300060E080919E0190919F010E94440368E4C4
:1016400071E0CE0101960E949C06BE016F5F7F4F44
:10165000CE0149960E94C4058C01CE0101960E94DC
:10166000F90617FD2AC060E471E0CE0107960E94DA
:101670009C06BE01695F7F4FCE0149960E94C4055A
:101680002D8D3E8DAC014F5F5F4FBE01675E7F4F7A
:10169000CE0101960E94AD06BE016F5F7F4F809123
:1016A0006401909165010E940107CE0101960E949C
:1016B000F906CE0107960E94F90663E571E0CE01B6
:1016C00001960E949C06BE016F5F7F4FCE01499636
:1016D0000E94C4058C01CE0101960E94F90617FDF7
:1016E0002AC060E471E0CE0107960E949C06BE010C
:1016F000695F7F4FCE0149960E94C4052D8D3E8DB6
:10170000AC014F5F5F4FBE01675E7F4FCE01019618
:101710000E94AD06BE016F5F7F4F80916201909184
:1017200063010E940107CE0101960E94F906CE01D5
:1017300007960E94F906CE0149960E94F9066EE2CC
:1017400071E086E492E00E9466066E960FB6F89409
:10175000DEBF0FBECDBFDF91CF911F910F91FF90E4
:10176000EF90BF90AF909F908F90089560E070E0F1
:10177000CB0177CE60E070E0CB01A1CE0E944402A5
:1017800081110C941F0908951F920F920FB60F92AA
:1017900011242F933F938F939F93AF93BF93809187
:1017A000A5019091A601A091A701B091A801309147
:1017B000A00123E0230F2D3758F50196A11DB11D7F
:1017C0002093A0018093A5019093A601A093A70167
:1017D000B093A8018091A1019091A201A091A301D1
:1017E000B091A4010196A11DB11D8093A101909318
:1017F000A201A093A301B093A401BF91AF919F91C7
:101800008F913F912F910F900FBE0F901F901895C1
:1018100026E8230F0296A11DB11DD2CF1F920F9271
:101820000FB60F9211242F933F934F935F936F93B3
:101830007F938F939F93AF93BF93EF93FF9389EA27
:1018400091E00E944E02FF91EF91BF91AF919F9165
:101850008F917F916F915F914F913F912F910F9059
:101860000FBE0F901F9018951F920F920FB60F92F8
:1018700011242F938F939F93EF93FF93E091B901DE
:10188000F091BA018081E091BF01F091C00182FD29
:101890001BC090818091C2018F5F8F732091C30123
:1018A000821741F0E091C201F0E0E755FE4F958FBD
:1018B0008093C201FF91EF919F918F912F910F9093
:1018C0000FBE0F901F9018958081F4CFE9EAF1E0E8
:1018D0001382128288EE93E0A0E0B0E084839583C7
:1018E000A683B78382E191E09183808385EC90E0C9
:1018F0009587848784EC90E09787868780EC90E0DA
:10190000918B808B81EC90E0938B828B82EC90E0CA
:10191000958B848B86EC90E0978B868B118E128E44
:10192000138E148E6EE271E086E492E00C949C06B5
:10193000CF93DF93CDB7DEB7A8970FB6F894DEBF8D
:101940000FBECDBF789484B5826084BD84B58160BC
:1019500084BD85B5826085BD85B5816085BD80917A
:101960006E00816080936E001092810080918100F2
:1019700082608093810080918100816080938100EA
:10198000809180008160809380008091B1008460AC
:101990008093B1008091B00081608093B00080910D
:1019A0007A00846080937A0080917A0082608093CC
:1019B0007A0080917A00816080937A0080917A0029
:1019C000806880937A001092C100E091B901F09193
:1019D000BA0182E08083E091B501F091B6011082F6
:1019E000E091B701F091B8018FEC80831092C101B2
:1019F000E091BD01F091BE0186E08083E091BB01E2
:101A0000F091BC01808180618083E091BB01F09105
:101A1000BC01808188608083E091BB01F091BC01B2
:101A2000808180688083E091BB01F091BC0180815E
:101A30008F7D808386E090E00E94F2169A838983EE
:101A400030E020E041E06DE00E94AA0389819A81A4
:101A500090939F0180939E0186E090E00E94F21691
:101A60009A83898330E020E041E06EE10E94AA037E
:101A7000A981BA81B0939D01A0939C0186E090E07A
:101A80000E94F2169C838B8330E020E041E068E204
:101A90000E94AA03EB81FC81F0939B01E0939A01E1
:101AA00086E090E00E94F2169E838D8330E020E075
:101AB00041E062E30E94AA038D819E819093990187
:101AC0008093980186E090E00E94F21698878F83B9
:101AD00030E020E041E06CE30E94AA03AF81B885CA
:101AE000B0939701A093960186E090E00E94F216D1
:101AF0009A87898730E020E041E066E40E94AA03EB
:101B0000E985FA85F0939501E093940186E090E0F1
:101B10000E94F2169C878B8730E020E041E060E570
:101B20000E94AA038B859C859093930180939201D8
:101B300086E090E00E94F2169E878D8721E030E0DB
:101B400040E063E00E94AA03AD85BE85B093910199
:101B5000A093900186E090E00E94F216988B8F8708
:101B600021E030E040E064E00E94AA03EF85F889BC
:101B7000F0938F01E0938E0186E190E00E94F216CF
:101B80003C0180E090E0A6E1B4E4F301808391831E
:101B9000A283B383812C912C88ECA82E82E4B82EEA
:101BA00084829582A682B78280E090E0AAEFB3E4B7
:101BB00080879187A287B38722242394312C358A8A
:101BC000248A8DEC9CECACECBDE384879587A687DA
:101BD000B7872BE8C22E2EEBD22E22EEE22E22E485
:101BE000F22EC08AD18AE28AF38A70928D016092C5
:101BF0008C0186E090E00E94F2169A8B898B30E08F
:101C000020E041E06FE00E94AA03E989FA89F0939D
:101C10008B01E0938A0186E090E00E94F2169C8B93
:101C20008B8B30E020E041E060E10E94AA038B89C9
:101C30009C89909389018093880186E090E00E94BE
:101C4000F2169E8B8D8B30E020E041E061E10E9436
:101C5000AA03AD89BE89B0938701A093860186E06F
:101C600090E00E94F216988F8F8B30E020E041E0E8
:101C700062E10E94AA03EF89F88DF0938501E09359
:101C8000840186E090E00E94F2169A8F898F30E0FE
:101C900020E041E063E10E94AA03898D9A8D909330
:101CA00083018093820186E090E00E94F2169C8F6F
:101CB0008B8F30E020E041E064E10E94AA03AB8D0D
:101CC000BC8DB0938101A093800186E090E00E94DA
:101CD000F2169E8F8D8F21E030E040E068E00E9498
:101CE000AA03ED8DFE8DF0937F01E0937E0186E0E7
:101CF00090E00E94F21698A38F8F21E030E040E040
:101D000069E00E94AA038F8D98A190937D01809332
:101D10007C0186E190E00E94F2162C0180E090E0C8
:101D2000A6E1B4E4F20180839183A283B383848229
:101D30009582A682B78280E090E0AAEFB3E4808724
:101D40009187A287B387358A248A8DEC9CECACEC12
:101D5000BDE384879587A687B787C08AD18AE28A40
:101D6000F38A50927B0140927A0186E090E00E94D3
:101D7000F2169AA389A330E020E041E060E00E94DF
:101D8000AA03E9A1FAA1F0937501E093740186E03A
:101D900090E00E94F2169CA38BA330E020E041E08B
:101DA00060E00E94AA038BA19CA190937301809391
:101DB000720186E090E00E94F2165C0130E020E0C3
:101DC00041E060E00E94AA03B0927101A09270010C
:101DD00086E090E00E94F21698A78FA330E020E002
:101DE00041E060E00E94AA03AFA1B8A5B0936F01E3
:101DF000A0936E0186E090E00E94F2169EA38DA350
:101E000030E020E041E060E00E94AA03EDA1FEA1E5
:101E1000F0936D01E0936C0186E090E00E94F21671
:101E20004C0130E020E041E060E00E94AA03909283
:101E30006B0180926A0186E090E00E94F2166C01CC
:101E400030E020E041E060E00E94AA03D092690106
:101E5000C092680186E090E00E94F2167C0130E0BA
:101E600020E041E060E00E94AA03F0926701E09266
:101E7000660186E290E00E94F2168C01DC01599620
:101E80001C921E9258975B961C921E925A975D96D2
:101E90003C922E925C975F961C921E925E97919652
:101EA0003C922E929097E8ECF0E09396FC93EE93A0
:101EB000929740E061E070E00E947804D8015B9660
:101EC0001C921E925A97E981FA811196FC93EE9327
:101ED0008B819C8113969C938E931297ED81FE814A
:101EE0001596FC93EE9314978F81988517969C9383
:101EF0008E931697E985FA851996FC93EE931897B9
:101F00008B859C851B969C938E931A97E9A1FAA1C9
:101F10005196FC93EE9350978BA19CA153969C9362
:101F20008E9352975596BC92AE925497EFA1F8A516
:101F30005796FC93EE9356975D963C922E925C9743
:101F400030E0A32E31E0B32E9596BC92AE929497DA
:101F500059961C921E92589710937901009378011C
:101F600086E290E00E94F2169A838983DC015996FA
:101F70001C921E9258975B961C921E925A975D96E1
:101F80003C922E925C975F961C921E925E97919661
:101F90003C922E929097E8ECF0E09396FC93EE93AF
:101FA000929740E061E070E00E947804A981BA81D4
:101FB0005B961C921E925A97E989FA891196FC93B6
:101FC000EE938B899C8913969C938E931297ED893F
:101FD000FE891596FC93EE9314978F89988D17962A
:101FE0009C938E931697E98DFA8D1996FC93EE9338
:101FF00018978B8D9C8D1B969C938E931A97EDA1B1
:10200000FEA15196FC93EE93509753969C928E921C
:1020100052975596DC92CE9254975796FC92EE9238
:1020200056975D963C922E925C979596BC92AE9296
:10203000949759961C921E925897B0937701A0934B
:1020400076018DE090E00E94F2167C01DC01199689
:102050001C921E92189711961C930E9300E41FE198
:102060001B961C930E931A971C961C921C97ED8539
:10207000FE851396FC93EE9312978F85988915969B
:102080009C938E93149717967C926E921697F0926B
:102090006501E09264018DE090E00E94F2166C010F
:1020A000DC0119961C921E921897E981FA8111960B
:1020B000FC93EE931B961C930E931A971C961C92FE
:1020C0001C978D8D9E8D13969C938E931297EF8DFA
:1020D000F8A11596FC93EE93149717965C924E9286
:1020E0001697D0926301C0926201C7010E94550405
:1020F000C6010E9455040E9474014B015C0148EB2B
:10210000C42E4BE0D42EE12CF12C0E9474016819EE
:1021100079098A099B09683E734081059105A8F3F6
:10212000F1E0CF1AD108E108F10828EE820E23E091
:10213000921EA11CB11CC114D104E104F10429F7C1
:102140000E9444028823E1F30E941F09F9CF86E42C
:1021500092E00C94F906662777270C9405111F93DB
:10216000FC0199278827BC01E89411911032E9F30A
:10217000193010F01E30C8F31B3251F01D3249F4F3
:10218000689406C00E94D610610F711D811D911DBB
:10219000119110531A30B0F33EF4909580957095DC
:1021A00061957F4F8F4F9F4F1F910895592F482F53
:1021B000372F262F660F771F881F991F660F771FEF
:1021C000881F991F620F731F841F951F660F771F4B
:1021D000881F991F0895BB27FB015527AA27880F41
:1021E000991FAA1FA41710F0A41B83955051B9F78B
:1021F000A05DAA3308F0A95DA193009779F7B1110A
:10220000B1931192CB010C947612B0E0A0E0EBE018
:10221000F1E10C94BE135C017B016115710519F0AD
:10222000DB018D939C9385010F5F1F4FF501D081DA
:102230008D2F90E00E9455126C01892BB9F5DD328B
:10224000B9F50F5F1F4FD5011196DC91C1E0580120
:10225000F1E0AF1AB10843E050E062EF70E0C50171
:102260000E945E12892B69F5680182E0C80ED11CBC
:1022700045E050E06DEE70E0C6010E945E12892BD1
:1022800021F4680197E0C90ED11CE114F10419F0A2
:10229000D701CD92DC9260E070E080E89FEFC11141
:1022A000FFC060E070E080E89FE7FAC05801BBCF54
:1022B000DB3229F485010E5F1F4FF501D181C0E0AB
:1022C000C6CF43E050E06AEE70E0C5010E945E12A6
:1022D000892BE9F0F80110E000E020E030E0A901EE
:1022E0005F01B0ED8B2E8D0E89E08815C8F19C2E14
:1022F000689491F88C2F8870C2FF16C0811102C0BB
:102300000F5F1F4F3196D501DC91C92DE9CFE11444
:10231000F10429F00E5F1F4FF7011183008360E085
:1023200070E080EC9FE7BCC0882311F001501109D8
:10233000A5E0B0E00E94AD139B01AC01220F331F5A
:10234000441F551F280D311D411D511D283999E984
:102350003907490799E15907A8F2C6609C2ED2CFE8
:10236000AEEF8A1206C0C3FD3CC09C2E689493F861
:10237000C9CFDF7DD534A9F580818D3239F4C061B4
:10238000DF011296818162E070E006C0DF018B32CE
:10239000C1F3119661E070E080535D01A61AB70A9F
:1023A0008A30F8F4E0E8CE16ECE0DE065CF4B60124
:1023B000660F771F660F771FC60ED71ECC0CDD1C6D
:1023C000C80ED11C5D01FFEFAF1ABF0A8C9180537C
:1023D0008A30A8F1C4FF03C0D194C194D1080C0D78
:1023E0001D1DC1FF09C0E114F10431F081E0A81AFC
:1023F000B108D701AD92BC92CA01B9010E948B12FB
:10240000C370C33009F490584B015C0120E030E008
:10241000A9010E948612882309F440C0C1E2D1E0DC
:1024200017FF05C0119501951109C9E0D1E06E01B2
:10243000B8E1CB1AD10880E2E82EF12C0FC0D5010B
:10244000B1CFFE0125913591459154910E191F0987
:10245000C501B4010E94EC124B015C01D501C4011D
:102460000E151F0574F72497F594E794CC16DD0636
:10247000A9F78A2F880F8B2F881F8F3F49F020E004
:1024800030E0A901C501B4010E948612811106C085
:1024900082E290E090934D0280934C02C501B4011A
:1024A000CDB7DEB7ECE00C94DA1391110C9459130C
:1024B000803219F089508550C8F70895FB01DC017E
:1024C0004150504088F08D9181341CF08B350CF4D4
:1024D000805E659161341CF06B350CF4605E861B88
:1024E000611171F3990B0895881BFCCFDC01FC018D
:1024F000672F71917723E1F7329704C07C916D9338
:1025000070836291AE17BF07C8F308950E94C81286
:1025100008F481E00895E89409C097FB3EF4909593
:102520008095709561957F4F8F4F9F4F9923A9F0AC
:10253000F92F96E9BB279395F6958795779567953B
:10254000B795F111F8CFFAF4BB0F11F460FF1BC07F
:102550006F5F7F4F8F4F9F4F16C0882311F096E912
:1025600011C0772321F09EE8872F762F05C06623C0
:1025700071F096E8862F70E060E02AF09A95660F79
:10258000771F881FDAF7880F9695879597F9089532
:10259000990F0008550FAA0BE0E8FEEF1616170674
:1025A000E807F907C0F012161306E407F50798F0DC
:1025B000621B730B840B950B39F40A2661F0232BF5
:1025C000242B252B21F408950A2609F4A140A69571
:1025D0008FEF811D811D08950E94FF120C947313CB
:1025E0000E94651338F00E946C1320F0952311F0BF
:1025F0000C945C130C94621311240C94A7130E9486
:10260000841370F3959FC1F3950F50E0551F629F9F
:10261000F001729FBB27F00DB11D639FAA27F00D3B
:10262000B11DAA1F649F6627B00DA11D661F829F62
:102630002227B00DA11D621F739FB00DA11D621F47
:10264000839FA00D611D221F749F3327A00D611D64
:10265000231F849F600D211D822F762F6A2F112446
:102660009F5750409AF0F1F088234AF0EE0FFF1F79
:10267000BB1F661F771F881F91505040A9F79E3FD0
:10268000510580F00C945C130C94A7135F3FE4F3A6
:10269000983ED4F3869577956795B795F795E79526
:1026A0009F5FC1F7FE2B880F911D9695879597F92F
:1026B000089599278827089597F99F6780E870E023
:1026C00060E008959FEF80EC089500240A941616A8
:1026D000170618060906089500240A941216130610
:1026E000140605060895092E0394000C11F488239E
:1026F00052F0BB0F40F4BF2B11F460FF04C06F5FBA
:102700007F4F8F4F9F4F089557FD9058440F551F8F
:1027100059F05F3F71F04795880F97FB991F61F063
:102720009F3F79F087950895121613061406551FDA
:10273000F2CF4695F1DF08C0161617061806991F46
:10274000F1CF86957105610508940895E894BB273B
:1027500066277727CB0197F908950E94EF13A59F6D
:10276000900DB49F900DA49F800D911D112408958C
:102770002F923F924F925F926F927F928F929F9291
:10278000AF92BF92CF92DF92EF92FF920F931F937F
:10279000CF93DF93CDB7DEB7CA1BDB0B0FB6F89430
:1027A000DEBF0FBECDBF09942A88398848885F8470
:1027B0006E847D848C849B84AA84B984C884DF80E1
:1027C000EE80FD800C811B81AA81B981CE0FD11DC5
:1027D0000FB6F894DEBF0FBECDBFED010895A29FE6
:1027E000B001B39FC001A39F700D811D1124911DE5
:1027F000B29F700D811D1124911D08955058BB2763
:10280000AA270E9416140C9473130E94651338F0C3
:102810000E946C1320F039F49F3F19F426F40C94B5
:1028200062130EF4E095E7FB0C945C13E92F0E9411
:10283000841358F3BA17620773078407950720F0CB
:1028400079F4A6F50C94A6130EF4E0950B2EBA2F8E
:10285000A02D0B01B90190010C01CA01A0011124A6
:10286000FF27591B99F0593F50F4503E68F11A1652
:10287000F040A22F232F342F4427585FF3CF4695E3
:1028800037952795A795F0405395C9F77EF41F1605
:10289000BA0B620B730B840BBAF09150A1F0FF0FCF
:1028A000BB1F661F771F881FC2F70EC0BA0F621FBB
:1028B000731F841F48F4879577956795B795F795AB
:1028C0009E3F08F0B0CF9395880F08F09927EE0F40
:1028D0009795879508950E947F140C9473130E9416
:1028E0006C1358F00E94651340F029F45F3F29F003
:1028F0000C945C1351110C94A7130C9462130E9456
:10290000841368F39923B1F3552391F3951B550B69
:10291000BB27AA2762177307840738F09F5F5F4FB2
:10292000220F331F441FAA1FA9F335D00E2E3AF0F1
:10293000E0E832D091505040E695001CCAF72BD009
:10294000FE2F29D0660F771F881FBB1F261737075A
:102950004807AB07B0E809F0BB0B802DBF01FF278C
:1029600093585F4F3AF09E3F510578F00C945C13FA
:102970000C94A7135F3FE4F3983ED4F386957795C4
:102980006795B795F7959F5FC9F7880F911D969545
:10299000879597F90895E1E0660F771F881FBB1FA1
:1029A000621773078407BA0720F0621B730B840B4E
:1029B000BA0BEE1F88F7E09508950E94E41468941E
:1029C000B1110C94A71308950E948C1388F09F579F
:1029D00098F0B92F9927B751B0F0E1F0660F771F43
:1029E000881F991F1AF0BA95C9F714C0B13091F039
:1029F0000E94A613B1E008950C94A613672F782FB8
:102A00008827B85F39F0B93FCCF3869577956795FD
:102A1000B395D9F73EF490958095709561957F4F69
:102A20008F4F9F4F08950E94C81208F48FEF0895AA
:102A3000FA01EE0FFF1F309621053105A1F1611556
:102A4000710561F48038BFE39B0749F168949038C1
:102A5000810561F08038BFEF9B0741F099234AF56B
:102A6000FF3FE1053105210519F1E8940894E79548
:102A7000D901AA2329F4AB2FBE2FF85FD0F310C0E1
:102A8000FF5F70F4A695E0F7F73950F019F0FF3AC0
:102A900038F49F779F930DD00F9007FC90580895BE
:102AA00046F00C94621360E070E080E89FE30895C4
:102AB0004FE79F775F934F933F932F930E94181692
:102AC0002F913F914F915F910E94EC120C947515DC
:102AD0000E94C812880B990B089529F416F00C94E3
:102AE0005C130C94A6130C9462130E948C13A8F32D
:102AF0009638A0F707F80F92E8942BE33AEA48EBF0
:102B00005FE70E9402130F920F920F924DB75EB7CC
:102B10000F920E946016E8E6F0E00E94A7154F9120
:102B20005F91EF91FF91E595EE1FFF1F49F0FE5772
:102B3000E0684427EE0F441FFA95E1F74195550BE5
:102B40000E94DA150F9007FE0C94CE150895DF93BE
:102B5000CF931F930F93FF92EF92DF927B018C0133
:102B6000689406C0DA2EEF010E94FF12FE01E8947D
:102B7000A5912591359145915591A6F3EF010E94BC
:102B80001614FE019701A801DA9469F7DF90EF901F
:102B9000FF900F911F91CF91DF9108959B01AC01A0
:102BA00060E070E080E89FE30C946B140C945C137D
:102BB0000C9494160E948C13D8F39923C9F3940FA4
:102BC000511DA3F39150504094F059F0882332F0F6
:102BD000660F771F881F91505040C1F79E3F5105E7
:102BE0002CF7880F911D9695879597F908955F3F6B
:102BF000ACF0983E9CF0BB27869577956795B79586
:102C000008F4B1609395C1F7BB0F58F711F460FF5A
:102C1000E8CF6F5F7F4F8F4F9F4FE3CF0C94A71389
:102C200016F00C9494160C94621368940C945C1334
:102C30000E948C13A8F39923C1F3AEF3DF93CF93D3
:102C40001F930F93FF92C92FDD2788232AF0219726
:102C5000660F771F881FDAF720E030E040E85FEB6F
:102C60009FE3883920F0803E38F021968F770E94CC
:102C7000FF13E0E9F0E004C00E94FF13EDEBF0E089
:102C80000E94A7158B01BE01EC01FB2E6F57710945
:102C90007595771F880B990B0E948D1228E132E7FA
:102CA00041E35FE30E94FF12AF2D9801AE01FF9058
:102CB0000F911F91CF91DF910E9416140C94731302
:102CC000FA01DC01AA0FBB1F9B01AC01BF5728F41E
:102CD000222733274427507820C0B75190F4AB2FD8
:102CE0000024469537952795011CA395D2F3002023
:102CF00071F0220F331F441FB395DAF30ED00C94FA
:102D0000FE1361307105A0E88A07B94630F49B01D3
:102D1000AC016627772788279078309621F02083AA
:102D200031834283538308959F3F31F0915020F4C3
:102D3000879577956795B795880F911D9695879597
:102D400097F9089597FB072E16F4009407D077FDA6
:102D500009D00E94D81607FC05D03EF490958195C5
:102D60009F4F0895709561957F4F0895A1E21A2EA7
:102D7000AA1BBB1BFD010DC0AA1FBB1FEE1FFF1F1F
:102D8000A217B307E407F50720F0A21BB30BE40B6F
:102D9000F50B661F771F881F991F1A9469F76095B6
:102DA0007095809590959B01AC01BD01CF01089570
:102DB000AA1BBB1B51E107C0AA1FBB1FA617B70761
:102DC00010F0A61BB70B881F991F5A95A9F780957D
:102DD0009095BC01CD010895EE0FFF1F0590F49171
:102DE000E02D09940F931F93CF93DF9382309105C9
:102DF00010F482E090E0E0915002F091510230E056
:102E000020E0B0E0A0E0309799F42115310509F4F5
:102E10004AC0281B390B24303105D8F58A819B81A3
:102E20006115710589F1FB0193838283FE0111C055
:102E3000408151810281138148175907E0F04817FA
:102E4000590799F4109761F012960C931297139604
:102E50001C933296CF01DF91CF911F910F9108956E
:102E60000093500210935102F4CF2115310551F017
:102E70004217530738F0A901DB019A01BD01DF01B8
:102E8000F801C1CFEF01F9CF909351028093500226
:102E9000CDCFFE01E20FF31F8193919322503109B0
:102EA00039832883D7CF20914E0230914F02232BB4
:102EB00041F420910A0130910B0130934F0220938D
:102EC0004E0220910801309109012115310541F48C
:102ED0002DB73EB740910C0150910D01241B350BCD
:102EE000E0914E02F0914F02E217F307A0F42E1B7F
:102EF0003F0B2817390778F0AC014E5F5F4F24175E
:102F0000350748F04E0F5F1F50934F0240934E021B
:102F1000819391939FCFF0E0E0E09CCFCF93DF933C
:102F20000097E9F0FC01329713821282A0915002BF
:102F3000B0915102ED0130E020E01097A1F4208122
:102F40003181820F931F20914E0230914F0228173A
:102F5000390709F061C0F0934F02E0934E02DF9110
:102F6000CF910895EA01CE17DF07E8F54A815B812A
:102F70009E0141155105B1F7E901FB83EA834991AF
:102F80005991C40FD51FEC17FD0761F48081918121
:102F90000296840F951FE90199838883828193812A
:102FA0009B838A83F0E0E0E012968D919C911397C9
:102FB0000097B9F52D913C911197CD010296820FA2
:102FC000931F20914E0230914F022817390739F68E
:102FD000309751F51092510210925002B0934F0267
:102FE000A0934E02BCCFD383C28340815181840F12
:102FF000951FC817D90761F44E5F5F4F888199818B
:10300000480F591F518340838A819B819383828318
:103010002115310509F0B0CFF0935102E093500231
:103020009ECFFD01DC01C0CF13821282D7CFB0E06A
:10303000A0E0EDE1F8E10C94BA138C01009751F493
:10304000CB010E94F2168C01C801CDB7DEB7E0E1DA
:103050000C94D613FC01E60FF71F9C012250310996
:10306000E217F30708F49DC0D901CD91DC911197C7
:10307000C617D70798F0C530D10530F3CE010497B5
:103080008617970708F3C61BD70B2297C193D193D6
:103090006D937C93CF010E948E17D6CF5B01AC1A43
:1030A000BD0A4C018C0E9D1EA0915002B0915102A0
:1030B000512C412CF12CE12C109731F580914E02CE
:1030C00090914F028815990509F05CC04616570685
:1030D00008F058C08091080190910901009741F4CF
:1030E0008DB79EB740910C0150910D01841B950B3B
:1030F000E817F90708F055C0F0934F02E0934E022D
:10310000F90171836083A0CF8D919C9111971296E4
:103110006C90129713967C901397A815B90559F5E2
:103120006C0142E0C40ED11CCA14DB0420F1AC01D6
:103130004A195B09DA011296159780F06282738250
:1031400051834083D9016D937C93E114F10471F0B4
:10315000D7011396FC93EE93129776CF22968C0F9D
:103160009D1FF90191838083F301EFCFF09351020A
:10317000E093500269CF4816590608F42C017D01EE
:10318000D3019ACFCB010E94F2167C01009749F03F
:10319000AE01B8010E94DC18C8010E948E17870199
:1031A00053CF10E000E050CF9111089581568A511D
:1031B00008F4805285580895FB01DC0102C001909B
:1031C0000D9241505040D8F70895FB01DC01019069
:1031D0000D920020E1F70895FB0151915523A9F0CC
:1031E000BF01DC014D9145174111E1F759F4CD01C3
:1031F0000190002049F04D9140154111C9F3FB01A8
:103200004111EFCF81E090E00197089510E0C1EC0B
:10321000D0E004C0FE010E94EC162196C23CD1070A
:06322000C9F7F894FFCF8E
:103226000901030206040C08000052028000000097
:10323600000070029A01C701BD023802D6012A02B7
:103246006E616E00696E66006F7666000D0A004D4F
:1032560041583A00204D494E3A004D4F56455200CE
:1032660020002C004C0044004D4F444F5041535316
:0E3276004F58004D4F444F504153534F590095
:00000001FF
